{
  "contracts/Trello.sol": {
    "Trello": {
      "abi": [
        {
          "anonymous": false,
          "inputs": [
            {
              "indexed": false,
              "internalType": "uint256",
              "name": "listId",
              "type": "uint256"
            },
            {
              "indexed": false,
              "internalType": "string",
              "name": "title",
              "type": "string"
            }
          ],
          "name": "ListCreated",
          "type": "event"
        },
        {
          "anonymous": false,
          "inputs": [
            {
              "indexed": false,
              "internalType": "uint256",
              "name": "listId",
              "type": "uint256"
            },
            {
              "indexed": false,
              "internalType": "string",
              "name": "projectName",
              "type": "string"
            }
          ],
          "name": "ProjectAdded",
          "type": "event"
        },
        {
          "inputs": [
            {
              "internalType": "uint256",
              "name": "_listId",
              "type": "uint256"
            },
            {
              "internalType": "string",
              "name": "_text",
              "type": "string"
            }
          ],
          "name": "addCard",
          "outputs": [],
          "stateMutability": "nonpayable",
          "type": "function"
        },
        {
          "inputs": [
            {
              "internalType": "uint256",
              "name": "_listId",
              "type": "uint256"
            },
            {
              "internalType": "string",
              "name": "_name",
              "type": "string"
            },
            {
              "internalType": "string[]",
              "name": "_members",
              "type": "string[]"
            },
            {
              "internalType": "string",
              "name": "_dueDate",
              "type": "string"
            },
            {
              "components": [
                {
                  "internalType": "string",
                  "name": "text",
                  "type": "string"
                },
                {
                  "internalType": "bool",
                  "name": "completed",
                  "type": "bool"
                }
              ],
              "internalType": "struct Trello.ChecklistItem[]",
              "name": "_checklist",
              "type": "tuple[]"
            }
          ],
          "name": "addProject",
          "outputs": [],
          "stateMutability": "nonpayable",
          "type": "function"
        },
        {
          "inputs": [
            {
              "internalType": "string",
              "name": "_title",
              "type": "string"
            }
          ],
          "name": "createList",
          "outputs": [],
          "stateMutability": "nonpayable",
          "type": "function"
        },
        {
          "inputs": [
            {
              "internalType": "uint256",
              "name": "_listId",
              "type": "uint256"
            }
          ],
          "name": "getList",
          "outputs": [
            {
              "components": [
                {
                  "internalType": "uint256",
                  "name": "id",
                  "type": "uint256"
                },
                {
                  "internalType": "string",
                  "name": "title",
                  "type": "string"
                },
                {
                  "components": [
                    {
                      "internalType": "uint256",
                      "name": "id",
                      "type": "uint256"
                    },
                    {
                      "internalType": "string",
                      "name": "text",
                      "type": "string"
                    }
                  ],
                  "internalType": "struct Trello.Card[]",
                  "name": "cards",
                  "type": "tuple[]"
                },
                {
                  "components": [
                    {
                      "internalType": "string",
                      "name": "name",
                      "type": "string"
                    },
                    {
                      "internalType": "string[]",
                      "name": "members",
                      "type": "string[]"
                    },
                    {
                      "internalType": "string",
                      "name": "dueDate",
                      "type": "string"
                    },
                    {
                      "components": [
                        {
                          "internalType": "string",
                          "name": "text",
                          "type": "string"
                        },
                        {
                          "internalType": "bool",
                          "name": "completed",
                          "type": "bool"
                        }
                      ],
                      "internalType": "struct Trello.ChecklistItem[]",
                      "name": "checklist",
                      "type": "tuple[]"
                    }
                  ],
                  "internalType": "struct Trello.Project[]",
                  "name": "projects",
                  "type": "tuple[]"
                }
              ],
              "internalType": "struct Trello.List",
              "name": "",
              "type": "tuple"
            }
          ],
          "stateMutability": "view",
          "type": "function"
        },
        {
          "inputs": [],
          "name": "listCount",
          "outputs": [
            {
              "internalType": "uint256",
              "name": "",
              "type": "uint256"
            }
          ],
          "stateMutability": "view",
          "type": "function"
        },
        {
          "inputs": [
            {
              "internalType": "uint256",
              "name": "",
              "type": "uint256"
            }
          ],
          "name": "lists",
          "outputs": [
            {
              "internalType": "uint256",
              "name": "id",
              "type": "uint256"
            },
            {
              "internalType": "string",
              "name": "title",
              "type": "string"
            }
          ],
          "stateMutability": "view",
          "type": "function"
        }
      ],
      "evm": {
        "bytecode": {
          "linkReferences": {},
          "object": "608060405234801561001057600080fd5b50611a4e806100206000396000f3fe608060405234801561001057600080fd5b50600436106100625760003560e01c80631ab5b383146100675780631b68d10d1461009757806396102cf4146100b5578063aa93d702146100e6578063b8dcc68f14610102578063f88c6fcc1461011e575b600080fd5b610081600480360381019061007c9190610b1a565b61013a565b60405161008e919061106c565b60405180910390f35b61009f610665565b6040516100ac919061109d565b60405180910390f35b6100cf60048036038101906100ca9190610b1a565b61066b565b6040516100dd929190611102565b60405180910390f35b61010060048036038101906100fb9190611267565b610717565b005b61011c600480360381019061011791906112c3565b6107af565b005b61013860048036038101906101339190611575565b61083b565b005b6101426109ce565b600080838152602001908152602001600020604051806080016040529081600082015481526020016001820180546101799061168f565b80601f01602080910402602001604051908101604052809291908181526020018280546101a59061168f565b80156101f25780601f106101c7576101008083540402835291602001916101f2565b820191906000526020600020905b8154815290600101906020018083116101d557829003601f168201915b5050505050815260200160028201805480602002602001604051908101604052809291908181526020016000905b828210156102ee57838290600052602060002090600202016040518060400160405290816000820154815260200160018201805461025d9061168f565b80601f01602080910402602001604051908101604052809291908181526020018280546102899061168f565b80156102d65780601f106102ab576101008083540402835291602001916102d6565b820191906000526020600020905b8154815290600101906020018083116102b957829003601f168201915b50505050508152505081526020019060010190610220565b50505050815260200160038201805480602002602001604051908101604052809291908181526020016000905b82821015610656578382906000526020600020906004020160405180608001604052908160008201805461034e9061168f565b80601f016020809104026020016040519081016040528092919081815260200182805461037a9061168f565b80156103c75780601f1061039c576101008083540402835291602001916103c7565b820191906000526020600020905b8154815290600101906020018083116103aa57829003601f168201915b5050505050815260200160018201805480602002602001604051908101604052809291908181526020016000905b828210156104a15783829060005260206000200180546104149061168f565b80601f01602080910402602001604051908101604052809291908181526020018280546104409061168f565b801561048d5780601f106104625761010080835404028352916020019161048d565b820191906000526020600020905b81548152906001019060200180831161047057829003601f168201915b5050505050815260200190600101906103f5565b5050505081526020016002820180546104b99061168f565b80601f01602080910402602001604051908101604052809291908181526020018280546104e59061168f565b80156105325780601f1061050757610100808354040283529160200191610532565b820191906000526020600020905b81548152906001019060200180831161051557829003601f168201915b5050505050815260200160038201805480602002602001604051908101604052809291908181526020016000905b8282101561063f57838290600052602060002090600202016040518060400160405290816000820180546105939061168f565b80601f01602080910402602001604051908101604052809291908181526020018280546105bf9061168f565b801561060c5780601f106105e15761010080835404028352916020019161060c565b820191906000526020600020905b8154815290600101906020018083116105ef57829003601f168201915b505050505081526020016001820160009054906101000a900460ff16151515158152505081526020019060010190610560565b50505050815250508152602001906001019061031b565b50505050815250509050919050565b60015481565b60006020528060005260406000206000915090508060000154908060010180546106949061168f565b80601f01602080910402602001604051908101604052809291908181526020018280546106c09061168f565b801561070d5780601f106106e25761010080835404028352916020019161070d565b820191906000526020600020905b8154815290600101906020018083116106f057829003601f168201915b5050505050905082565b6000806000848152602001908152602001600020905060006001826002018054905061074391906116ef565b90508160020160405180604001604052808381526020018581525090806001815401808255809150506001900390600052602060002090600202016000909190919091506000820151816000015560208201518160010190816107a691906118cf565b50505050505050565b600160008154809291906107c2906119a1565b91905055506000806000600154815260200190815260200160002090506001548160000181905550818160010190816107fb91906118cf565b507f13c0a79b829782fd89082c728447d4543330e162ab0a74ca8d0f47a1161be9626001548360405161082f929190611102565b60405180910390a15050565b6000806000878152602001908152602001600020905060008160030160018160018154018082558091505003906000526020600020906004020190508581600001908161088891906118cf565b50848160010190805190602001906108a19291906109f6565b50838160020190816108b391906118cf565b5060005b835181101561098b578160030160405180604001604052808684815181106108e2576108e16119e9565b5b6020026020010151600001518152602001868481518110610906576109056119e9565b5b60200260200101516020015115158152509080600181540180825580915050600190039060005260206000209060020201600090919091909150600082015181600001908161095591906118cf565b5060208201518160010160006101000a81548160ff02191690831515021790555050508080610983906119a1565b9150506108b7565b507f0855be7ab46e0ae9e0d9c2f3567377c0a577a8c726b7c88615644d282a1fc29187876040516109bd929190611102565b60405180910390a150505050505050565b6040518060800160405280600081526020016060815260200160608152602001606081525090565b828054828255906000526020600020908101928215610a3e579160200282015b82811115610a3d578251829081610a2d91906118cf565b5091602001919060010190610a16565b5b509050610a4b9190610a4f565b5090565b5b80821115610a6f5760008181610a669190610a73565b50600101610a50565b5090565b508054610a7f9061168f565b6000825580601f10610a915750610ab0565b601f016020900490600052602060002090810190610aaf9190610ab3565b5b50565b5b80821115610acc576000816000905550600101610ab4565b5090565b6000604051905090565b600080fd5b600080fd5b6000819050919050565b610af781610ae4565b8114610b0257600080fd5b50565b600081359050610b1481610aee565b92915050565b600060208284031215610b3057610b2f610ada565b5b6000610b3e84828501610b05565b91505092915050565b610b5081610ae4565b82525050565b600081519050919050565b600082825260208201905092915050565b60005b83811015610b90578082015181840152602081019050610b75565b60008484015250505050565b6000601f19601f8301169050919050565b6000610bb882610b56565b610bc28185610b61565b9350610bd2818560208601610b72565b610bdb81610b9c565b840191505092915050565b600081519050919050565b600082825260208201905092915050565b6000819050602082019050919050565b6000604083016000830151610c2a6000860182610b47565b5060208301518482036020860152610c428282610bad565b9150508091505092915050565b6000610c5b8383610c12565b905092915050565b6000602082019050919050565b6000610c7b82610be6565b610c858185610bf1565b935083602082028501610c9785610c02565b8060005b85811015610cd35784840389528151610cb48582610c4f565b9450610cbf83610c63565b925060208a01995050600181019050610c9b565b50829750879550505050505092915050565b600081519050919050565b600082825260208201905092915050565b6000819050602082019050919050565b600081519050919050565b600082825260208201905092915050565b6000819050602082019050919050565b6000610d498383610bad565b905092915050565b6000602082019050919050565b6000610d6982610d11565b610d738185610d1c565b935083602082028501610d8585610d2d565b8060005b85811015610dc15784840389528151610da28582610d3d565b9450610dad83610d51565b925060208a01995050600181019050610d89565b50829750879550505050505092915050565b600081519050919050565b600082825260208201905092915050565b6000819050602082019050919050565b60008115159050919050565b610e1481610dff565b82525050565b60006040830160008301518482036000860152610e378282610bad565b9150506020830151610e4c6020860182610e0b565b508091505092915050565b6000610e638383610e1a565b905092915050565b6000602082019050919050565b6000610e8382610dd3565b610e8d8185610dde565b935083602082028501610e9f85610def565b8060005b85811015610edb5784840389528151610ebc8582610e57565b9450610ec783610e6b565b925060208a01995050600181019050610ea3565b50829750879550505050505092915050565b60006080830160008301518482036000860152610f0a8282610bad565b91505060208301518482036020860152610f248282610d5e565b91505060408301518482036040860152610f3e8282610bad565b91505060608301518482036060860152610f588282610e78565b9150508091505092915050565b6000610f718383610eed565b905092915050565b6000602082019050919050565b6000610f9182610ce5565b610f9b8185610cf0565b935083602082028501610fad85610d01565b8060005b85811015610fe95784840389528151610fca8582610f65565b9450610fd583610f79565b925060208a01995050600181019050610fb1565b50829750879550505050505092915050565b60006080830160008301516110136000860182610b47565b506020830151848203602086015261102b8282610bad565b915050604083015184820360408601526110458282610c70565b9150506060830151848203606086015261105f8282610f86565b9150508091505092915050565b600060208201905081810360008301526110868184610ffb565b905092915050565b61109781610ae4565b82525050565b60006020820190506110b2600083018461108e565b92915050565b600082825260208201905092915050565b60006110d482610b56565b6110de81856110b8565b93506110ee818560208601610b72565b6110f781610b9c565b840191505092915050565b6000604082019050611117600083018561108e565b818103602083015261112981846110c9565b90509392505050565b600080fd5b600080fd5b7f4e487b7100000000000000000000000000000000000000000000000000000000600052604160045260246000fd5b61117482610b9c565b810181811067ffffffffffffffff821117156111935761119261113c565b5b80604052505050565b60006111a6610ad0565b90506111b2828261116b565b919050565b600067ffffffffffffffff8211156111d2576111d161113c565b5b6111db82610b9c565b9050602081019050919050565b82818337600083830152505050565b600061120a611205846111b7565b61119c565b90508281526020810184848401111561122657611225611137565b5b6112318482856111e8565b509392505050565b600082601f83011261124e5761124d611132565b5b813561125e8482602086016111f7565b91505092915050565b6000806040838503121561127e5761127d610ada565b5b600061128c85828601610b05565b925050602083013567ffffffffffffffff8111156112ad576112ac610adf565b5b6112b985828601611239565b9150509250929050565b6000602082840312156112d9576112d8610ada565b5b600082013567ffffffffffffffff8111156112f7576112f6610adf565b5b61130384828501611239565b91505092915050565b600067ffffffffffffffff8211156113275761132661113c565b5b602082029050602081019050919050565b600080fd5b600061135061134b8461130c565b61119c565b9050808382526020820190506020840283018581111561137357611372611338565b5b835b818110156113ba57803567ffffffffffffffff81111561139857611397611132565b5b8086016113a58982611239565b85526020850194505050602081019050611375565b5050509392505050565b600082601f8301126113d9576113d8611132565b5b81356113e984826020860161133d565b91505092915050565b600067ffffffffffffffff82111561140d5761140c61113c565b5b602082029050602081019050919050565b600080fd5b600080fd5b61143181610dff565b811461143c57600080fd5b50565b60008135905061144e81611428565b92915050565b60006040828403121561146a5761146961141e565b5b611474604061119c565b9050600082013567ffffffffffffffff81111561149457611493611423565b5b6114a084828501611239565b60008301525060206114b48482850161143f565b60208301525092915050565b60006114d36114ce846113f2565b61119c565b905080838252602082019050602084028301858111156114f6576114f5611338565b5b835b8181101561153d57803567ffffffffffffffff81111561151b5761151a611132565b5b8086016115288982611454565b855260208501945050506020810190506114f8565b5050509392505050565b600082601f83011261155c5761155b611132565b5b813561156c8482602086016114c0565b91505092915050565b600080600080600060a0868803121561159157611590610ada565b5b600061159f88828901610b05565b955050602086013567ffffffffffffffff8111156115c0576115bf610adf565b5b6115cc88828901611239565b945050604086013567ffffffffffffffff8111156115ed576115ec610adf565b5b6115f9888289016113c4565b935050606086013567ffffffffffffffff81111561161a57611619610adf565b5b61162688828901611239565b925050608086013567ffffffffffffffff81111561164757611646610adf565b5b61165388828901611547565b9150509295509295909350565b7f4e487b7100000000000000000000000000000000000000000000000000000000600052602260045260246000fd5b600060028204905060018216806116a757607f821691505b6020821081036116ba576116b9611660565b5b50919050565b7f4e487b7100000000000000000000000000000000000000000000000000000000600052601160045260246000fd5b60006116fa82610ae4565b915061170583610ae4565b925082820190508082111561171d5761171c6116c0565b5b92915050565b60008190508160005260206000209050919050565b60006020601f8301049050919050565b600082821b905092915050565b6000600883026117857fffffffffffffffffffffffffffffffffffffffffffffffffffffffffffffffff82611748565b61178f8683611748565b95508019841693508086168417925050509392505050565b6000819050919050565b60006117cc6117c76117c284610ae4565b6117a7565b610ae4565b9050919050565b6000819050919050565b6117e6836117b1565b6117fa6117f2826117d3565b848454611755565b825550505050565b600090565b61180f611802565b61181a8184846117dd565b505050565b5b8181101561183e57611833600082611807565b600181019050611820565b5050565b601f8211156118835761185481611723565b61185d84611738565b8101602085101561186c578190505b61188061187885611738565b83018261181f565b50505b505050565b600082821c905092915050565b60006118a660001984600802611888565b1980831691505092915050565b60006118bf8383611895565b9150826002028217905092915050565b6118d882610b56565b67ffffffffffffffff8111156118f1576118f061113c565b5b6118fb825461168f565b611906828285611842565b600060209050601f8311600181146119395760008415611927578287015190505b61193185826118b3565b865550611999565b601f19841661194786611723565b60005b8281101561196f5784890151825560018201915060208501945060208101905061194a565b8683101561198c5784890151611988601f891682611895565b8355505b6001600288020188555050505b505050505050565b60006119ac82610ae4565b91507fffffffffffffffffffffffffffffffffffffffffffffffffffffffffffffffff82036119de576119dd6116c0565b5b600182019050919050565b7f4e487b7100000000000000000000000000000000000000000000000000000000600052603260045260246000fdfea2646970667358221220873e5971b28ea3486a90b8bfe86906d937aa0d367dbd2d9085e6ee2151fd88ae64736f6c63430008140033",
          "opcodes": "PUSH1 0x80 PUSH1 0x40 MSTORE CALLVALUE DUP1 ISZERO PUSH2 0x10 JUMPI PUSH1 0x0 DUP1 REVERT JUMPDEST POP PUSH2 0x1A4E DUP1 PUSH2 0x20 PUSH1 0x0 CODECOPY PUSH1 0x0 RETURN INVALID PUSH1 0x80 PUSH1 0x40 MSTORE CALLVALUE DUP1 ISZERO PUSH2 0x10 JUMPI PUSH1 0x0 DUP1 REVERT JUMPDEST POP PUSH1 0x4 CALLDATASIZE LT PUSH2 0x62 JUMPI PUSH1 0x0 CALLDATALOAD PUSH1 0xE0 SHR DUP1 PUSH4 0x1AB5B383 EQ PUSH2 0x67 JUMPI DUP1 PUSH4 0x1B68D10D EQ PUSH2 0x97 JUMPI DUP1 PUSH4 0x96102CF4 EQ PUSH2 0xB5 JUMPI DUP1 PUSH4 0xAA93D702 EQ PUSH2 0xE6 JUMPI DUP1 PUSH4 0xB8DCC68F EQ PUSH2 0x102 JUMPI DUP1 PUSH4 0xF88C6FCC EQ PUSH2 0x11E JUMPI JUMPDEST PUSH1 0x0 DUP1 REVERT JUMPDEST PUSH2 0x81 PUSH1 0x4 DUP1 CALLDATASIZE SUB DUP2 ADD SWAP1 PUSH2 0x7C SWAP2 SWAP1 PUSH2 0xB1A JUMP JUMPDEST PUSH2 0x13A JUMP JUMPDEST PUSH1 0x40 MLOAD PUSH2 0x8E SWAP2 SWAP1 PUSH2 0x106C JUMP JUMPDEST PUSH1 0x40 MLOAD DUP1 SWAP2 SUB SWAP1 RETURN JUMPDEST PUSH2 0x9F PUSH2 0x665 JUMP JUMPDEST PUSH1 0x40 MLOAD PUSH2 0xAC SWAP2 SWAP1 PUSH2 0x109D JUMP JUMPDEST PUSH1 0x40 MLOAD DUP1 SWAP2 SUB SWAP1 RETURN JUMPDEST PUSH2 0xCF PUSH1 0x4 DUP1 CALLDATASIZE SUB DUP2 ADD SWAP1 PUSH2 0xCA SWAP2 SWAP1 PUSH2 0xB1A JUMP JUMPDEST PUSH2 0x66B JUMP JUMPDEST PUSH1 0x40 MLOAD PUSH2 0xDD SWAP3 SWAP2 SWAP1 PUSH2 0x1102 JUMP JUMPDEST PUSH1 0x40 MLOAD DUP1 SWAP2 SUB SWAP1 RETURN JUMPDEST PUSH2 0x100 PUSH1 0x4 DUP1 CALLDATASIZE SUB DUP2 ADD SWAP1 PUSH2 0xFB SWAP2 SWAP1 PUSH2 0x1267 JUMP JUMPDEST PUSH2 0x717 JUMP JUMPDEST STOP JUMPDEST PUSH2 0x11C PUSH1 0x4 DUP1 CALLDATASIZE SUB DUP2 ADD SWAP1 PUSH2 0x117 SWAP2 SWAP1 PUSH2 0x12C3 JUMP JUMPDEST PUSH2 0x7AF JUMP JUMPDEST STOP JUMPDEST PUSH2 0x138 PUSH1 0x4 DUP1 CALLDATASIZE SUB DUP2 ADD SWAP1 PUSH2 0x133 SWAP2 SWAP1 PUSH2 0x1575 JUMP JUMPDEST PUSH2 0x83B JUMP JUMPDEST STOP JUMPDEST PUSH2 0x142 PUSH2 0x9CE JUMP JUMPDEST PUSH1 0x0 DUP1 DUP4 DUP2 MSTORE PUSH1 0x20 ADD SWAP1 DUP2 MSTORE PUSH1 0x20 ADD PUSH1 0x0 KECCAK256 PUSH1 0x40 MLOAD DUP1 PUSH1 0x80 ADD PUSH1 0x40 MSTORE SWAP1 DUP2 PUSH1 0x0 DUP3 ADD SLOAD DUP2 MSTORE PUSH1 0x20 ADD PUSH1 0x1 DUP3 ADD DUP1 SLOAD PUSH2 0x179 SWAP1 PUSH2 0x168F JUMP JUMPDEST DUP1 PUSH1 0x1F ADD PUSH1 0x20 DUP1 SWAP2 DIV MUL PUSH1 0x20 ADD PUSH1 0x40 MLOAD SWAP1 DUP2 ADD PUSH1 0x40 MSTORE DUP1 SWAP3 SWAP2 SWAP1 DUP2 DUP2 MSTORE PUSH1 0x20 ADD DUP3 DUP1 SLOAD PUSH2 0x1A5 SWAP1 PUSH2 0x168F JUMP JUMPDEST DUP1 ISZERO PUSH2 0x1F2 JUMPI DUP1 PUSH1 0x1F LT PUSH2 0x1C7 JUMPI PUSH2 0x100 DUP1 DUP4 SLOAD DIV MUL DUP4 MSTORE SWAP2 PUSH1 0x20 ADD SWAP2 PUSH2 0x1F2 JUMP JUMPDEST DUP3 ADD SWAP2 SWAP1 PUSH1 0x0 MSTORE PUSH1 0x20 PUSH1 0x0 KECCAK256 SWAP1 JUMPDEST DUP2 SLOAD DUP2 MSTORE SWAP1 PUSH1 0x1 ADD SWAP1 PUSH1 0x20 ADD DUP1 DUP4 GT PUSH2 0x1D5 JUMPI DUP3 SWAP1 SUB PUSH1 0x1F AND DUP3 ADD SWAP2 JUMPDEST POP POP POP POP POP DUP2 MSTORE PUSH1 0x20 ADD PUSH1 0x2 DUP3 ADD DUP1 SLOAD DUP1 PUSH1 0x20 MUL PUSH1 0x20 ADD PUSH1 0x40 MLOAD SWAP1 DUP2 ADD PUSH1 0x40 MSTORE DUP1 SWAP3 SWAP2 SWAP1 DUP2 DUP2 MSTORE PUSH1 0x20 ADD PUSH1 0x0 SWAP1 JUMPDEST DUP3 DUP3 LT ISZERO PUSH2 0x2EE JUMPI DUP4 DUP3 SWAP1 PUSH1 0x0 MSTORE PUSH1 0x20 PUSH1 0x0 KECCAK256 SWAP1 PUSH1 0x2 MUL ADD PUSH1 0x40 MLOAD DUP1 PUSH1 0x40 ADD PUSH1 0x40 MSTORE SWAP1 DUP2 PUSH1 0x0 DUP3 ADD SLOAD DUP2 MSTORE PUSH1 0x20 ADD PUSH1 0x1 DUP3 ADD DUP1 SLOAD PUSH2 0x25D SWAP1 PUSH2 0x168F JUMP JUMPDEST DUP1 PUSH1 0x1F ADD PUSH1 0x20 DUP1 SWAP2 DIV MUL PUSH1 0x20 ADD PUSH1 0x40 MLOAD SWAP1 DUP2 ADD PUSH1 0x40 MSTORE DUP1 SWAP3 SWAP2 SWAP1 DUP2 DUP2 MSTORE PUSH1 0x20 ADD DUP3 DUP1 SLOAD PUSH2 0x289 SWAP1 PUSH2 0x168F JUMP JUMPDEST DUP1 ISZERO PUSH2 0x2D6 JUMPI DUP1 PUSH1 0x1F LT PUSH2 0x2AB JUMPI PUSH2 0x100 DUP1 DUP4 SLOAD DIV MUL DUP4 MSTORE SWAP2 PUSH1 0x20 ADD SWAP2 PUSH2 0x2D6 JUMP JUMPDEST DUP3 ADD SWAP2 SWAP1 PUSH1 0x0 MSTORE PUSH1 0x20 PUSH1 0x0 KECCAK256 SWAP1 JUMPDEST DUP2 SLOAD DUP2 MSTORE SWAP1 PUSH1 0x1 ADD SWAP1 PUSH1 0x20 ADD DUP1 DUP4 GT PUSH2 0x2B9 JUMPI DUP3 SWAP1 SUB PUSH1 0x1F AND DUP3 ADD SWAP2 JUMPDEST POP POP POP POP POP DUP2 MSTORE POP POP DUP2 MSTORE PUSH1 0x20 ADD SWAP1 PUSH1 0x1 ADD SWAP1 PUSH2 0x220 JUMP JUMPDEST POP POP POP POP DUP2 MSTORE PUSH1 0x20 ADD PUSH1 0x3 DUP3 ADD DUP1 SLOAD DUP1 PUSH1 0x20 MUL PUSH1 0x20 ADD PUSH1 0x40 MLOAD SWAP1 DUP2 ADD PUSH1 0x40 MSTORE DUP1 SWAP3 SWAP2 SWAP1 DUP2 DUP2 MSTORE PUSH1 0x20 ADD PUSH1 0x0 SWAP1 JUMPDEST DUP3 DUP3 LT ISZERO PUSH2 0x656 JUMPI DUP4 DUP3 SWAP1 PUSH1 0x0 MSTORE PUSH1 0x20 PUSH1 0x0 KECCAK256 SWAP1 PUSH1 0x4 MUL ADD PUSH1 0x40 MLOAD DUP1 PUSH1 0x80 ADD PUSH1 0x40 MSTORE SWAP1 DUP2 PUSH1 0x0 DUP3 ADD DUP1 SLOAD PUSH2 0x34E SWAP1 PUSH2 0x168F JUMP JUMPDEST DUP1 PUSH1 0x1F ADD PUSH1 0x20 DUP1 SWAP2 DIV MUL PUSH1 0x20 ADD PUSH1 0x40 MLOAD SWAP1 DUP2 ADD PUSH1 0x40 MSTORE DUP1 SWAP3 SWAP2 SWAP1 DUP2 DUP2 MSTORE PUSH1 0x20 ADD DUP3 DUP1 SLOAD PUSH2 0x37A SWAP1 PUSH2 0x168F JUMP JUMPDEST DUP1 ISZERO PUSH2 0x3C7 JUMPI DUP1 PUSH1 0x1F LT PUSH2 0x39C JUMPI PUSH2 0x100 DUP1 DUP4 SLOAD DIV MUL DUP4 MSTORE SWAP2 PUSH1 0x20 ADD SWAP2 PUSH2 0x3C7 JUMP JUMPDEST DUP3 ADD SWAP2 SWAP1 PUSH1 0x0 MSTORE PUSH1 0x20 PUSH1 0x0 KECCAK256 SWAP1 JUMPDEST DUP2 SLOAD DUP2 MSTORE SWAP1 PUSH1 0x1 ADD SWAP1 PUSH1 0x20 ADD DUP1 DUP4 GT PUSH2 0x3AA JUMPI DUP3 SWAP1 SUB PUSH1 0x1F AND DUP3 ADD SWAP2 JUMPDEST POP POP POP POP POP DUP2 MSTORE PUSH1 0x20 ADD PUSH1 0x1 DUP3 ADD DUP1 SLOAD DUP1 PUSH1 0x20 MUL PUSH1 0x20 ADD PUSH1 0x40 MLOAD SWAP1 DUP2 ADD PUSH1 0x40 MSTORE DUP1 SWAP3 SWAP2 SWAP1 DUP2 DUP2 MSTORE PUSH1 0x20 ADD PUSH1 0x0 SWAP1 JUMPDEST DUP3 DUP3 LT ISZERO PUSH2 0x4A1 JUMPI DUP4 DUP3 SWAP1 PUSH1 0x0 MSTORE PUSH1 0x20 PUSH1 0x0 KECCAK256 ADD DUP1 SLOAD PUSH2 0x414 SWAP1 PUSH2 0x168F JUMP JUMPDEST DUP1 PUSH1 0x1F ADD PUSH1 0x20 DUP1 SWAP2 DIV MUL PUSH1 0x20 ADD PUSH1 0x40 MLOAD SWAP1 DUP2 ADD PUSH1 0x40 MSTORE DUP1 SWAP3 SWAP2 SWAP1 DUP2 DUP2 MSTORE PUSH1 0x20 ADD DUP3 DUP1 SLOAD PUSH2 0x440 SWAP1 PUSH2 0x168F JUMP JUMPDEST DUP1 ISZERO PUSH2 0x48D JUMPI DUP1 PUSH1 0x1F LT PUSH2 0x462 JUMPI PUSH2 0x100 DUP1 DUP4 SLOAD DIV MUL DUP4 MSTORE SWAP2 PUSH1 0x20 ADD SWAP2 PUSH2 0x48D JUMP JUMPDEST DUP3 ADD SWAP2 SWAP1 PUSH1 0x0 MSTORE PUSH1 0x20 PUSH1 0x0 KECCAK256 SWAP1 JUMPDEST DUP2 SLOAD DUP2 MSTORE SWAP1 PUSH1 0x1 ADD SWAP1 PUSH1 0x20 ADD DUP1 DUP4 GT PUSH2 0x470 JUMPI DUP3 SWAP1 SUB PUSH1 0x1F AND DUP3 ADD SWAP2 JUMPDEST POP POP POP POP POP DUP2 MSTORE PUSH1 0x20 ADD SWAP1 PUSH1 0x1 ADD SWAP1 PUSH2 0x3F5 JUMP JUMPDEST POP POP POP POP DUP2 MSTORE PUSH1 0x20 ADD PUSH1 0x2 DUP3 ADD DUP1 SLOAD PUSH2 0x4B9 SWAP1 PUSH2 0x168F JUMP JUMPDEST DUP1 PUSH1 0x1F ADD PUSH1 0x20 DUP1 SWAP2 DIV MUL PUSH1 0x20 ADD PUSH1 0x40 MLOAD SWAP1 DUP2 ADD PUSH1 0x40 MSTORE DUP1 SWAP3 SWAP2 SWAP1 DUP2 DUP2 MSTORE PUSH1 0x20 ADD DUP3 DUP1 SLOAD PUSH2 0x4E5 SWAP1 PUSH2 0x168F JUMP JUMPDEST DUP1 ISZERO PUSH2 0x532 JUMPI DUP1 PUSH1 0x1F LT PUSH2 0x507 JUMPI PUSH2 0x100 DUP1 DUP4 SLOAD DIV MUL DUP4 MSTORE SWAP2 PUSH1 0x20 ADD SWAP2 PUSH2 0x532 JUMP JUMPDEST DUP3 ADD SWAP2 SWAP1 PUSH1 0x0 MSTORE PUSH1 0x20 PUSH1 0x0 KECCAK256 SWAP1 JUMPDEST DUP2 SLOAD DUP2 MSTORE SWAP1 PUSH1 0x1 ADD SWAP1 PUSH1 0x20 ADD DUP1 DUP4 GT PUSH2 0x515 JUMPI DUP3 SWAP1 SUB PUSH1 0x1F AND DUP3 ADD SWAP2 JUMPDEST POP POP POP POP POP DUP2 MSTORE PUSH1 0x20 ADD PUSH1 0x3 DUP3 ADD DUP1 SLOAD DUP1 PUSH1 0x20 MUL PUSH1 0x20 ADD PUSH1 0x40 MLOAD SWAP1 DUP2 ADD PUSH1 0x40 MSTORE DUP1 SWAP3 SWAP2 SWAP1 DUP2 DUP2 MSTORE PUSH1 0x20 ADD PUSH1 0x0 SWAP1 JUMPDEST DUP3 DUP3 LT ISZERO PUSH2 0x63F JUMPI DUP4 DUP3 SWAP1 PUSH1 0x0 MSTORE PUSH1 0x20 PUSH1 0x0 KECCAK256 SWAP1 PUSH1 0x2 MUL ADD PUSH1 0x40 MLOAD DUP1 PUSH1 0x40 ADD PUSH1 0x40 MSTORE SWAP1 DUP2 PUSH1 0x0 DUP3 ADD DUP1 SLOAD PUSH2 0x593 SWAP1 PUSH2 0x168F JUMP JUMPDEST DUP1 PUSH1 0x1F ADD PUSH1 0x20 DUP1 SWAP2 DIV MUL PUSH1 0x20 ADD PUSH1 0x40 MLOAD SWAP1 DUP2 ADD PUSH1 0x40 MSTORE DUP1 SWAP3 SWAP2 SWAP1 DUP2 DUP2 MSTORE PUSH1 0x20 ADD DUP3 DUP1 SLOAD PUSH2 0x5BF SWAP1 PUSH2 0x168F JUMP JUMPDEST DUP1 ISZERO PUSH2 0x60C JUMPI DUP1 PUSH1 0x1F LT PUSH2 0x5E1 JUMPI PUSH2 0x100 DUP1 DUP4 SLOAD DIV MUL DUP4 MSTORE SWAP2 PUSH1 0x20 ADD SWAP2 PUSH2 0x60C JUMP JUMPDEST DUP3 ADD SWAP2 SWAP1 PUSH1 0x0 MSTORE PUSH1 0x20 PUSH1 0x0 KECCAK256 SWAP1 JUMPDEST DUP2 SLOAD DUP2 MSTORE SWAP1 PUSH1 0x1 ADD SWAP1 PUSH1 0x20 ADD DUP1 DUP4 GT PUSH2 0x5EF JUMPI DUP3 SWAP1 SUB PUSH1 0x1F AND DUP3 ADD SWAP2 JUMPDEST POP POP POP POP POP DUP2 MSTORE PUSH1 0x20 ADD PUSH1 0x1 DUP3 ADD PUSH1 0x0 SWAP1 SLOAD SWAP1 PUSH2 0x100 EXP SWAP1 DIV PUSH1 0xFF AND ISZERO ISZERO ISZERO ISZERO DUP2 MSTORE POP POP DUP2 MSTORE PUSH1 0x20 ADD SWAP1 PUSH1 0x1 ADD SWAP1 PUSH2 0x560 JUMP JUMPDEST POP POP POP POP DUP2 MSTORE POP POP DUP2 MSTORE PUSH1 0x20 ADD SWAP1 PUSH1 0x1 ADD SWAP1 PUSH2 0x31B JUMP JUMPDEST POP POP POP POP DUP2 MSTORE POP POP SWAP1 POP SWAP2 SWAP1 POP JUMP JUMPDEST PUSH1 0x1 SLOAD DUP2 JUMP JUMPDEST PUSH1 0x0 PUSH1 0x20 MSTORE DUP1 PUSH1 0x0 MSTORE PUSH1 0x40 PUSH1 0x0 KECCAK256 PUSH1 0x0 SWAP2 POP SWAP1 POP DUP1 PUSH1 0x0 ADD SLOAD SWAP1 DUP1 PUSH1 0x1 ADD DUP1 SLOAD PUSH2 0x694 SWAP1 PUSH2 0x168F JUMP JUMPDEST DUP1 PUSH1 0x1F ADD PUSH1 0x20 DUP1 SWAP2 DIV MUL PUSH1 0x20 ADD PUSH1 0x40 MLOAD SWAP1 DUP2 ADD PUSH1 0x40 MSTORE DUP1 SWAP3 SWAP2 SWAP1 DUP2 DUP2 MSTORE PUSH1 0x20 ADD DUP3 DUP1 SLOAD PUSH2 0x6C0 SWAP1 PUSH2 0x168F JUMP JUMPDEST DUP1 ISZERO PUSH2 0x70D JUMPI DUP1 PUSH1 0x1F LT PUSH2 0x6E2 JUMPI PUSH2 0x100 DUP1 DUP4 SLOAD DIV MUL DUP4 MSTORE SWAP2 PUSH1 0x20 ADD SWAP2 PUSH2 0x70D JUMP JUMPDEST DUP3 ADD SWAP2 SWAP1 PUSH1 0x0 MSTORE PUSH1 0x20 PUSH1 0x0 KECCAK256 SWAP1 JUMPDEST DUP2 SLOAD DUP2 MSTORE SWAP1 PUSH1 0x1 ADD SWAP1 PUSH1 0x20 ADD DUP1 DUP4 GT PUSH2 0x6F0 JUMPI DUP3 SWAP1 SUB PUSH1 0x1F AND DUP3 ADD SWAP2 JUMPDEST POP POP POP POP POP SWAP1 POP DUP3 JUMP JUMPDEST PUSH1 0x0 DUP1 PUSH1 0x0 DUP5 DUP2 MSTORE PUSH1 0x20 ADD SWAP1 DUP2 MSTORE PUSH1 0x20 ADD PUSH1 0x0 KECCAK256 SWAP1 POP PUSH1 0x0 PUSH1 0x1 DUP3 PUSH1 0x2 ADD DUP1 SLOAD SWAP1 POP PUSH2 0x743 SWAP2 SWAP1 PUSH2 0x16EF JUMP JUMPDEST SWAP1 POP DUP2 PUSH1 0x2 ADD PUSH1 0x40 MLOAD DUP1 PUSH1 0x40 ADD PUSH1 0x40 MSTORE DUP1 DUP4 DUP2 MSTORE PUSH1 0x20 ADD DUP6 DUP2 MSTORE POP SWAP1 DUP1 PUSH1 0x1 DUP2 SLOAD ADD DUP1 DUP3 SSTORE DUP1 SWAP2 POP POP PUSH1 0x1 SWAP1 SUB SWAP1 PUSH1 0x0 MSTORE PUSH1 0x20 PUSH1 0x0 KECCAK256 SWAP1 PUSH1 0x2 MUL ADD PUSH1 0x0 SWAP1 SWAP2 SWAP1 SWAP2 SWAP1 SWAP2 POP PUSH1 0x0 DUP3 ADD MLOAD DUP2 PUSH1 0x0 ADD SSTORE PUSH1 0x20 DUP3 ADD MLOAD DUP2 PUSH1 0x1 ADD SWAP1 DUP2 PUSH2 0x7A6 SWAP2 SWAP1 PUSH2 0x18CF JUMP JUMPDEST POP POP POP POP POP POP POP JUMP JUMPDEST PUSH1 0x1 PUSH1 0x0 DUP2 SLOAD DUP1 SWAP3 SWAP2 SWAP1 PUSH2 0x7C2 SWAP1 PUSH2 0x19A1 JUMP JUMPDEST SWAP2 SWAP1 POP SSTORE POP PUSH1 0x0 DUP1 PUSH1 0x0 PUSH1 0x1 SLOAD DUP2 MSTORE PUSH1 0x20 ADD SWAP1 DUP2 MSTORE PUSH1 0x20 ADD PUSH1 0x0 KECCAK256 SWAP1 POP PUSH1 0x1 SLOAD DUP2 PUSH1 0x0 ADD DUP2 SWAP1 SSTORE POP DUP2 DUP2 PUSH1 0x1 ADD SWAP1 DUP2 PUSH2 0x7FB SWAP2 SWAP1 PUSH2 0x18CF JUMP JUMPDEST POP PUSH32 0x13C0A79B829782FD89082C728447D4543330E162AB0A74CA8D0F47A1161BE962 PUSH1 0x1 SLOAD DUP4 PUSH1 0x40 MLOAD PUSH2 0x82F SWAP3 SWAP2 SWAP1 PUSH2 0x1102 JUMP JUMPDEST PUSH1 0x40 MLOAD DUP1 SWAP2 SUB SWAP1 LOG1 POP POP JUMP JUMPDEST PUSH1 0x0 DUP1 PUSH1 0x0 DUP8 DUP2 MSTORE PUSH1 0x20 ADD SWAP1 DUP2 MSTORE PUSH1 0x20 ADD PUSH1 0x0 KECCAK256 SWAP1 POP PUSH1 0x0 DUP2 PUSH1 0x3 ADD PUSH1 0x1 DUP2 PUSH1 0x1 DUP2 SLOAD ADD DUP1 DUP3 SSTORE DUP1 SWAP2 POP POP SUB SWAP1 PUSH1 0x0 MSTORE PUSH1 0x20 PUSH1 0x0 KECCAK256 SWAP1 PUSH1 0x4 MUL ADD SWAP1 POP DUP6 DUP2 PUSH1 0x0 ADD SWAP1 DUP2 PUSH2 0x888 SWAP2 SWAP1 PUSH2 0x18CF JUMP JUMPDEST POP DUP5 DUP2 PUSH1 0x1 ADD SWAP1 DUP1 MLOAD SWAP1 PUSH1 0x20 ADD SWAP1 PUSH2 0x8A1 SWAP3 SWAP2 SWAP1 PUSH2 0x9F6 JUMP JUMPDEST POP DUP4 DUP2 PUSH1 0x2 ADD SWAP1 DUP2 PUSH2 0x8B3 SWAP2 SWAP1 PUSH2 0x18CF JUMP JUMPDEST POP PUSH1 0x0 JUMPDEST DUP4 MLOAD DUP2 LT ISZERO PUSH2 0x98B JUMPI DUP2 PUSH1 0x3 ADD PUSH1 0x40 MLOAD DUP1 PUSH1 0x40 ADD PUSH1 0x40 MSTORE DUP1 DUP7 DUP5 DUP2 MLOAD DUP2 LT PUSH2 0x8E2 JUMPI PUSH2 0x8E1 PUSH2 0x19E9 JUMP JUMPDEST JUMPDEST PUSH1 0x20 MUL PUSH1 0x20 ADD ADD MLOAD PUSH1 0x0 ADD MLOAD DUP2 MSTORE PUSH1 0x20 ADD DUP7 DUP5 DUP2 MLOAD DUP2 LT PUSH2 0x906 JUMPI PUSH2 0x905 PUSH2 0x19E9 JUMP JUMPDEST JUMPDEST PUSH1 0x20 MUL PUSH1 0x20 ADD ADD MLOAD PUSH1 0x20 ADD MLOAD ISZERO ISZERO DUP2 MSTORE POP SWAP1 DUP1 PUSH1 0x1 DUP2 SLOAD ADD DUP1 DUP3 SSTORE DUP1 SWAP2 POP POP PUSH1 0x1 SWAP1 SUB SWAP1 PUSH1 0x0 MSTORE PUSH1 0x20 PUSH1 0x0 KECCAK256 SWAP1 PUSH1 0x2 MUL ADD PUSH1 0x0 SWAP1 SWAP2 SWAP1 SWAP2 SWAP1 SWAP2 POP PUSH1 0x0 DUP3 ADD MLOAD DUP2 PUSH1 0x0 ADD SWAP1 DUP2 PUSH2 0x955 SWAP2 SWAP1 PUSH2 0x18CF JUMP JUMPDEST POP PUSH1 0x20 DUP3 ADD MLOAD DUP2 PUSH1 0x1 ADD PUSH1 0x0 PUSH2 0x100 EXP DUP2 SLOAD DUP2 PUSH1 0xFF MUL NOT AND SWAP1 DUP4 ISZERO ISZERO MUL OR SWAP1 SSTORE POP POP POP DUP1 DUP1 PUSH2 0x983 SWAP1 PUSH2 0x19A1 JUMP JUMPDEST SWAP2 POP POP PUSH2 0x8B7 JUMP JUMPDEST POP PUSH32 0x855BE7AB46E0AE9E0D9C2F3567377C0A577A8C726B7C88615644D282A1FC291 DUP8 DUP8 PUSH1 0x40 MLOAD PUSH2 0x9BD SWAP3 SWAP2 SWAP1 PUSH2 0x1102 JUMP JUMPDEST PUSH1 0x40 MLOAD DUP1 SWAP2 SUB SWAP1 LOG1 POP POP POP POP POP POP POP JUMP JUMPDEST PUSH1 0x40 MLOAD DUP1 PUSH1 0x80 ADD PUSH1 0x40 MSTORE DUP1 PUSH1 0x0 DUP2 MSTORE PUSH1 0x20 ADD PUSH1 0x60 DUP2 MSTORE PUSH1 0x20 ADD PUSH1 0x60 DUP2 MSTORE PUSH1 0x20 ADD PUSH1 0x60 DUP2 MSTORE POP SWAP1 JUMP JUMPDEST DUP3 DUP1 SLOAD DUP3 DUP3 SSTORE SWAP1 PUSH1 0x0 MSTORE PUSH1 0x20 PUSH1 0x0 KECCAK256 SWAP1 DUP2 ADD SWAP3 DUP3 ISZERO PUSH2 0xA3E JUMPI SWAP2 PUSH1 0x20 MUL DUP3 ADD JUMPDEST DUP3 DUP2 GT ISZERO PUSH2 0xA3D JUMPI DUP3 MLOAD DUP3 SWAP1 DUP2 PUSH2 0xA2D SWAP2 SWAP1 PUSH2 0x18CF JUMP JUMPDEST POP SWAP2 PUSH1 0x20 ADD SWAP2 SWAP1 PUSH1 0x1 ADD SWAP1 PUSH2 0xA16 JUMP JUMPDEST JUMPDEST POP SWAP1 POP PUSH2 0xA4B SWAP2 SWAP1 PUSH2 0xA4F JUMP JUMPDEST POP SWAP1 JUMP JUMPDEST JUMPDEST DUP1 DUP3 GT ISZERO PUSH2 0xA6F JUMPI PUSH1 0x0 DUP2 DUP2 PUSH2 0xA66 SWAP2 SWAP1 PUSH2 0xA73 JUMP JUMPDEST POP PUSH1 0x1 ADD PUSH2 0xA50 JUMP JUMPDEST POP SWAP1 JUMP JUMPDEST POP DUP1 SLOAD PUSH2 0xA7F SWAP1 PUSH2 0x168F JUMP JUMPDEST PUSH1 0x0 DUP3 SSTORE DUP1 PUSH1 0x1F LT PUSH2 0xA91 JUMPI POP PUSH2 0xAB0 JUMP JUMPDEST PUSH1 0x1F ADD PUSH1 0x20 SWAP1 DIV SWAP1 PUSH1 0x0 MSTORE PUSH1 0x20 PUSH1 0x0 KECCAK256 SWAP1 DUP2 ADD SWAP1 PUSH2 0xAAF SWAP2 SWAP1 PUSH2 0xAB3 JUMP JUMPDEST JUMPDEST POP JUMP JUMPDEST JUMPDEST DUP1 DUP3 GT ISZERO PUSH2 0xACC JUMPI PUSH1 0x0 DUP2 PUSH1 0x0 SWAP1 SSTORE POP PUSH1 0x1 ADD PUSH2 0xAB4 JUMP JUMPDEST POP SWAP1 JUMP JUMPDEST PUSH1 0x0 PUSH1 0x40 MLOAD SWAP1 POP SWAP1 JUMP JUMPDEST PUSH1 0x0 DUP1 REVERT JUMPDEST PUSH1 0x0 DUP1 REVERT JUMPDEST PUSH1 0x0 DUP2 SWAP1 POP SWAP2 SWAP1 POP JUMP JUMPDEST PUSH2 0xAF7 DUP2 PUSH2 0xAE4 JUMP JUMPDEST DUP2 EQ PUSH2 0xB02 JUMPI PUSH1 0x0 DUP1 REVERT JUMPDEST POP JUMP JUMPDEST PUSH1 0x0 DUP2 CALLDATALOAD SWAP1 POP PUSH2 0xB14 DUP2 PUSH2 0xAEE JUMP JUMPDEST SWAP3 SWAP2 POP POP JUMP JUMPDEST PUSH1 0x0 PUSH1 0x20 DUP3 DUP5 SUB SLT ISZERO PUSH2 0xB30 JUMPI PUSH2 0xB2F PUSH2 0xADA JUMP JUMPDEST JUMPDEST PUSH1 0x0 PUSH2 0xB3E DUP5 DUP3 DUP6 ADD PUSH2 0xB05 JUMP JUMPDEST SWAP2 POP POP SWAP3 SWAP2 POP POP JUMP JUMPDEST PUSH2 0xB50 DUP2 PUSH2 0xAE4 JUMP JUMPDEST DUP3 MSTORE POP POP JUMP JUMPDEST PUSH1 0x0 DUP2 MLOAD SWAP1 POP SWAP2 SWAP1 POP JUMP JUMPDEST PUSH1 0x0 DUP3 DUP3 MSTORE PUSH1 0x20 DUP3 ADD SWAP1 POP SWAP3 SWAP2 POP POP JUMP JUMPDEST PUSH1 0x0 JUMPDEST DUP4 DUP2 LT ISZERO PUSH2 0xB90 JUMPI DUP1 DUP3 ADD MLOAD DUP2 DUP5 ADD MSTORE PUSH1 0x20 DUP2 ADD SWAP1 POP PUSH2 0xB75 JUMP JUMPDEST PUSH1 0x0 DUP5 DUP5 ADD MSTORE POP POP POP POP JUMP JUMPDEST PUSH1 0x0 PUSH1 0x1F NOT PUSH1 0x1F DUP4 ADD AND SWAP1 POP SWAP2 SWAP1 POP JUMP JUMPDEST PUSH1 0x0 PUSH2 0xBB8 DUP3 PUSH2 0xB56 JUMP JUMPDEST PUSH2 0xBC2 DUP2 DUP6 PUSH2 0xB61 JUMP JUMPDEST SWAP4 POP PUSH2 0xBD2 DUP2 DUP6 PUSH1 0x20 DUP7 ADD PUSH2 0xB72 JUMP JUMPDEST PUSH2 0xBDB DUP2 PUSH2 0xB9C JUMP JUMPDEST DUP5 ADD SWAP2 POP POP SWAP3 SWAP2 POP POP JUMP JUMPDEST PUSH1 0x0 DUP2 MLOAD SWAP1 POP SWAP2 SWAP1 POP JUMP JUMPDEST PUSH1 0x0 DUP3 DUP3 MSTORE PUSH1 0x20 DUP3 ADD SWAP1 POP SWAP3 SWAP2 POP POP JUMP JUMPDEST PUSH1 0x0 DUP2 SWAP1 POP PUSH1 0x20 DUP3 ADD SWAP1 POP SWAP2 SWAP1 POP JUMP JUMPDEST PUSH1 0x0 PUSH1 0x40 DUP4 ADD PUSH1 0x0 DUP4 ADD MLOAD PUSH2 0xC2A PUSH1 0x0 DUP7 ADD DUP3 PUSH2 0xB47 JUMP JUMPDEST POP PUSH1 0x20 DUP4 ADD MLOAD DUP5 DUP3 SUB PUSH1 0x20 DUP7 ADD MSTORE PUSH2 0xC42 DUP3 DUP3 PUSH2 0xBAD JUMP JUMPDEST SWAP2 POP POP DUP1 SWAP2 POP POP SWAP3 SWAP2 POP POP JUMP JUMPDEST PUSH1 0x0 PUSH2 0xC5B DUP4 DUP4 PUSH2 0xC12 JUMP JUMPDEST SWAP1 POP SWAP3 SWAP2 POP POP JUMP JUMPDEST PUSH1 0x0 PUSH1 0x20 DUP3 ADD SWAP1 POP SWAP2 SWAP1 POP JUMP JUMPDEST PUSH1 0x0 PUSH2 0xC7B DUP3 PUSH2 0xBE6 JUMP JUMPDEST PUSH2 0xC85 DUP2 DUP6 PUSH2 0xBF1 JUMP JUMPDEST SWAP4 POP DUP4 PUSH1 0x20 DUP3 MUL DUP6 ADD PUSH2 0xC97 DUP6 PUSH2 0xC02 JUMP JUMPDEST DUP1 PUSH1 0x0 JUMPDEST DUP6 DUP2 LT ISZERO PUSH2 0xCD3 JUMPI DUP5 DUP5 SUB DUP10 MSTORE DUP2 MLOAD PUSH2 0xCB4 DUP6 DUP3 PUSH2 0xC4F JUMP JUMPDEST SWAP5 POP PUSH2 0xCBF DUP4 PUSH2 0xC63 JUMP JUMPDEST SWAP3 POP PUSH1 0x20 DUP11 ADD SWAP10 POP POP PUSH1 0x1 DUP2 ADD SWAP1 POP PUSH2 0xC9B JUMP JUMPDEST POP DUP3 SWAP8 POP DUP8 SWAP6 POP POP POP POP POP POP SWAP3 SWAP2 POP POP JUMP JUMPDEST PUSH1 0x0 DUP2 MLOAD SWAP1 POP SWAP2 SWAP1 POP JUMP JUMPDEST PUSH1 0x0 DUP3 DUP3 MSTORE PUSH1 0x20 DUP3 ADD SWAP1 POP SWAP3 SWAP2 POP POP JUMP JUMPDEST PUSH1 0x0 DUP2 SWAP1 POP PUSH1 0x20 DUP3 ADD SWAP1 POP SWAP2 SWAP1 POP JUMP JUMPDEST PUSH1 0x0 DUP2 MLOAD SWAP1 POP SWAP2 SWAP1 POP JUMP JUMPDEST PUSH1 0x0 DUP3 DUP3 MSTORE PUSH1 0x20 DUP3 ADD SWAP1 POP SWAP3 SWAP2 POP POP JUMP JUMPDEST PUSH1 0x0 DUP2 SWAP1 POP PUSH1 0x20 DUP3 ADD SWAP1 POP SWAP2 SWAP1 POP JUMP JUMPDEST PUSH1 0x0 PUSH2 0xD49 DUP4 DUP4 PUSH2 0xBAD JUMP JUMPDEST SWAP1 POP SWAP3 SWAP2 POP POP JUMP JUMPDEST PUSH1 0x0 PUSH1 0x20 DUP3 ADD SWAP1 POP SWAP2 SWAP1 POP JUMP JUMPDEST PUSH1 0x0 PUSH2 0xD69 DUP3 PUSH2 0xD11 JUMP JUMPDEST PUSH2 0xD73 DUP2 DUP6 PUSH2 0xD1C JUMP JUMPDEST SWAP4 POP DUP4 PUSH1 0x20 DUP3 MUL DUP6 ADD PUSH2 0xD85 DUP6 PUSH2 0xD2D JUMP JUMPDEST DUP1 PUSH1 0x0 JUMPDEST DUP6 DUP2 LT ISZERO PUSH2 0xDC1 JUMPI DUP5 DUP5 SUB DUP10 MSTORE DUP2 MLOAD PUSH2 0xDA2 DUP6 DUP3 PUSH2 0xD3D JUMP JUMPDEST SWAP5 POP PUSH2 0xDAD DUP4 PUSH2 0xD51 JUMP JUMPDEST SWAP3 POP PUSH1 0x20 DUP11 ADD SWAP10 POP POP PUSH1 0x1 DUP2 ADD SWAP1 POP PUSH2 0xD89 JUMP JUMPDEST POP DUP3 SWAP8 POP DUP8 SWAP6 POP POP POP POP POP POP SWAP3 SWAP2 POP POP JUMP JUMPDEST PUSH1 0x0 DUP2 MLOAD SWAP1 POP SWAP2 SWAP1 POP JUMP JUMPDEST PUSH1 0x0 DUP3 DUP3 MSTORE PUSH1 0x20 DUP3 ADD SWAP1 POP SWAP3 SWAP2 POP POP JUMP JUMPDEST PUSH1 0x0 DUP2 SWAP1 POP PUSH1 0x20 DUP3 ADD SWAP1 POP SWAP2 SWAP1 POP JUMP JUMPDEST PUSH1 0x0 DUP2 ISZERO ISZERO SWAP1 POP SWAP2 SWAP1 POP JUMP JUMPDEST PUSH2 0xE14 DUP2 PUSH2 0xDFF JUMP JUMPDEST DUP3 MSTORE POP POP JUMP JUMPDEST PUSH1 0x0 PUSH1 0x40 DUP4 ADD PUSH1 0x0 DUP4 ADD MLOAD DUP5 DUP3 SUB PUSH1 0x0 DUP7 ADD MSTORE PUSH2 0xE37 DUP3 DUP3 PUSH2 0xBAD JUMP JUMPDEST SWAP2 POP POP PUSH1 0x20 DUP4 ADD MLOAD PUSH2 0xE4C PUSH1 0x20 DUP7 ADD DUP3 PUSH2 0xE0B JUMP JUMPDEST POP DUP1 SWAP2 POP POP SWAP3 SWAP2 POP POP JUMP JUMPDEST PUSH1 0x0 PUSH2 0xE63 DUP4 DUP4 PUSH2 0xE1A JUMP JUMPDEST SWAP1 POP SWAP3 SWAP2 POP POP JUMP JUMPDEST PUSH1 0x0 PUSH1 0x20 DUP3 ADD SWAP1 POP SWAP2 SWAP1 POP JUMP JUMPDEST PUSH1 0x0 PUSH2 0xE83 DUP3 PUSH2 0xDD3 JUMP JUMPDEST PUSH2 0xE8D DUP2 DUP6 PUSH2 0xDDE JUMP JUMPDEST SWAP4 POP DUP4 PUSH1 0x20 DUP3 MUL DUP6 ADD PUSH2 0xE9F DUP6 PUSH2 0xDEF JUMP JUMPDEST DUP1 PUSH1 0x0 JUMPDEST DUP6 DUP2 LT ISZERO PUSH2 0xEDB JUMPI DUP5 DUP5 SUB DUP10 MSTORE DUP2 MLOAD PUSH2 0xEBC DUP6 DUP3 PUSH2 0xE57 JUMP JUMPDEST SWAP5 POP PUSH2 0xEC7 DUP4 PUSH2 0xE6B JUMP JUMPDEST SWAP3 POP PUSH1 0x20 DUP11 ADD SWAP10 POP POP PUSH1 0x1 DUP2 ADD SWAP1 POP PUSH2 0xEA3 JUMP JUMPDEST POP DUP3 SWAP8 POP DUP8 SWAP6 POP POP POP POP POP POP SWAP3 SWAP2 POP POP JUMP JUMPDEST PUSH1 0x0 PUSH1 0x80 DUP4 ADD PUSH1 0x0 DUP4 ADD MLOAD DUP5 DUP3 SUB PUSH1 0x0 DUP7 ADD MSTORE PUSH2 0xF0A DUP3 DUP3 PUSH2 0xBAD JUMP JUMPDEST SWAP2 POP POP PUSH1 0x20 DUP4 ADD MLOAD DUP5 DUP3 SUB PUSH1 0x20 DUP7 ADD MSTORE PUSH2 0xF24 DUP3 DUP3 PUSH2 0xD5E JUMP JUMPDEST SWAP2 POP POP PUSH1 0x40 DUP4 ADD MLOAD DUP5 DUP3 SUB PUSH1 0x40 DUP7 ADD MSTORE PUSH2 0xF3E DUP3 DUP3 PUSH2 0xBAD JUMP JUMPDEST SWAP2 POP POP PUSH1 0x60 DUP4 ADD MLOAD DUP5 DUP3 SUB PUSH1 0x60 DUP7 ADD MSTORE PUSH2 0xF58 DUP3 DUP3 PUSH2 0xE78 JUMP JUMPDEST SWAP2 POP POP DUP1 SWAP2 POP POP SWAP3 SWAP2 POP POP JUMP JUMPDEST PUSH1 0x0 PUSH2 0xF71 DUP4 DUP4 PUSH2 0xEED JUMP JUMPDEST SWAP1 POP SWAP3 SWAP2 POP POP JUMP JUMPDEST PUSH1 0x0 PUSH1 0x20 DUP3 ADD SWAP1 POP SWAP2 SWAP1 POP JUMP JUMPDEST PUSH1 0x0 PUSH2 0xF91 DUP3 PUSH2 0xCE5 JUMP JUMPDEST PUSH2 0xF9B DUP2 DUP6 PUSH2 0xCF0 JUMP JUMPDEST SWAP4 POP DUP4 PUSH1 0x20 DUP3 MUL DUP6 ADD PUSH2 0xFAD DUP6 PUSH2 0xD01 JUMP JUMPDEST DUP1 PUSH1 0x0 JUMPDEST DUP6 DUP2 LT ISZERO PUSH2 0xFE9 JUMPI DUP5 DUP5 SUB DUP10 MSTORE DUP2 MLOAD PUSH2 0xFCA DUP6 DUP3 PUSH2 0xF65 JUMP JUMPDEST SWAP5 POP PUSH2 0xFD5 DUP4 PUSH2 0xF79 JUMP JUMPDEST SWAP3 POP PUSH1 0x20 DUP11 ADD SWAP10 POP POP PUSH1 0x1 DUP2 ADD SWAP1 POP PUSH2 0xFB1 JUMP JUMPDEST POP DUP3 SWAP8 POP DUP8 SWAP6 POP POP POP POP POP POP SWAP3 SWAP2 POP POP JUMP JUMPDEST PUSH1 0x0 PUSH1 0x80 DUP4 ADD PUSH1 0x0 DUP4 ADD MLOAD PUSH2 0x1013 PUSH1 0x0 DUP7 ADD DUP3 PUSH2 0xB47 JUMP JUMPDEST POP PUSH1 0x20 DUP4 ADD MLOAD DUP5 DUP3 SUB PUSH1 0x20 DUP7 ADD MSTORE PUSH2 0x102B DUP3 DUP3 PUSH2 0xBAD JUMP JUMPDEST SWAP2 POP POP PUSH1 0x40 DUP4 ADD MLOAD DUP5 DUP3 SUB PUSH1 0x40 DUP7 ADD MSTORE PUSH2 0x1045 DUP3 DUP3 PUSH2 0xC70 JUMP JUMPDEST SWAP2 POP POP PUSH1 0x60 DUP4 ADD MLOAD DUP5 DUP3 SUB PUSH1 0x60 DUP7 ADD MSTORE PUSH2 0x105F DUP3 DUP3 PUSH2 0xF86 JUMP JUMPDEST SWAP2 POP POP DUP1 SWAP2 POP POP SWAP3 SWAP2 POP POP JUMP JUMPDEST PUSH1 0x0 PUSH1 0x20 DUP3 ADD SWAP1 POP DUP2 DUP2 SUB PUSH1 0x0 DUP4 ADD MSTORE PUSH2 0x1086 DUP2 DUP5 PUSH2 0xFFB JUMP JUMPDEST SWAP1 POP SWAP3 SWAP2 POP POP JUMP JUMPDEST PUSH2 0x1097 DUP2 PUSH2 0xAE4 JUMP JUMPDEST DUP3 MSTORE POP POP JUMP JUMPDEST PUSH1 0x0 PUSH1 0x20 DUP3 ADD SWAP1 POP PUSH2 0x10B2 PUSH1 0x0 DUP4 ADD DUP5 PUSH2 0x108E JUMP JUMPDEST SWAP3 SWAP2 POP POP JUMP JUMPDEST PUSH1 0x0 DUP3 DUP3 MSTORE PUSH1 0x20 DUP3 ADD SWAP1 POP SWAP3 SWAP2 POP POP JUMP JUMPDEST PUSH1 0x0 PUSH2 0x10D4 DUP3 PUSH2 0xB56 JUMP JUMPDEST PUSH2 0x10DE DUP2 DUP6 PUSH2 0x10B8 JUMP JUMPDEST SWAP4 POP PUSH2 0x10EE DUP2 DUP6 PUSH1 0x20 DUP7 ADD PUSH2 0xB72 JUMP JUMPDEST PUSH2 0x10F7 DUP2 PUSH2 0xB9C JUMP JUMPDEST DUP5 ADD SWAP2 POP POP SWAP3 SWAP2 POP POP JUMP JUMPDEST PUSH1 0x0 PUSH1 0x40 DUP3 ADD SWAP1 POP PUSH2 0x1117 PUSH1 0x0 DUP4 ADD DUP6 PUSH2 0x108E JUMP JUMPDEST DUP2 DUP2 SUB PUSH1 0x20 DUP4 ADD MSTORE PUSH2 0x1129 DUP2 DUP5 PUSH2 0x10C9 JUMP JUMPDEST SWAP1 POP SWAP4 SWAP3 POP POP POP JUMP JUMPDEST PUSH1 0x0 DUP1 REVERT JUMPDEST PUSH1 0x0 DUP1 REVERT JUMPDEST PUSH32 0x4E487B7100000000000000000000000000000000000000000000000000000000 PUSH1 0x0 MSTORE PUSH1 0x41 PUSH1 0x4 MSTORE PUSH1 0x24 PUSH1 0x0 REVERT JUMPDEST PUSH2 0x1174 DUP3 PUSH2 0xB9C JUMP JUMPDEST DUP2 ADD DUP2 DUP2 LT PUSH8 0xFFFFFFFFFFFFFFFF DUP3 GT OR ISZERO PUSH2 0x1193 JUMPI PUSH2 0x1192 PUSH2 0x113C JUMP JUMPDEST JUMPDEST DUP1 PUSH1 0x40 MSTORE POP POP POP JUMP JUMPDEST PUSH1 0x0 PUSH2 0x11A6 PUSH2 0xAD0 JUMP JUMPDEST SWAP1 POP PUSH2 0x11B2 DUP3 DUP3 PUSH2 0x116B JUMP JUMPDEST SWAP2 SWAP1 POP JUMP JUMPDEST PUSH1 0x0 PUSH8 0xFFFFFFFFFFFFFFFF DUP3 GT ISZERO PUSH2 0x11D2 JUMPI PUSH2 0x11D1 PUSH2 0x113C JUMP JUMPDEST JUMPDEST PUSH2 0x11DB DUP3 PUSH2 0xB9C JUMP JUMPDEST SWAP1 POP PUSH1 0x20 DUP2 ADD SWAP1 POP SWAP2 SWAP1 POP JUMP JUMPDEST DUP3 DUP2 DUP4 CALLDATACOPY PUSH1 0x0 DUP4 DUP4 ADD MSTORE POP POP POP JUMP JUMPDEST PUSH1 0x0 PUSH2 0x120A PUSH2 0x1205 DUP5 PUSH2 0x11B7 JUMP JUMPDEST PUSH2 0x119C JUMP JUMPDEST SWAP1 POP DUP3 DUP2 MSTORE PUSH1 0x20 DUP2 ADD DUP5 DUP5 DUP5 ADD GT ISZERO PUSH2 0x1226 JUMPI PUSH2 0x1225 PUSH2 0x1137 JUMP JUMPDEST JUMPDEST PUSH2 0x1231 DUP5 DUP3 DUP6 PUSH2 0x11E8 JUMP JUMPDEST POP SWAP4 SWAP3 POP POP POP JUMP JUMPDEST PUSH1 0x0 DUP3 PUSH1 0x1F DUP4 ADD SLT PUSH2 0x124E JUMPI PUSH2 0x124D PUSH2 0x1132 JUMP JUMPDEST JUMPDEST DUP2 CALLDATALOAD PUSH2 0x125E DUP5 DUP3 PUSH1 0x20 DUP7 ADD PUSH2 0x11F7 JUMP JUMPDEST SWAP2 POP POP SWAP3 SWAP2 POP POP JUMP JUMPDEST PUSH1 0x0 DUP1 PUSH1 0x40 DUP4 DUP6 SUB SLT ISZERO PUSH2 0x127E JUMPI PUSH2 0x127D PUSH2 0xADA JUMP JUMPDEST JUMPDEST PUSH1 0x0 PUSH2 0x128C DUP6 DUP3 DUP7 ADD PUSH2 0xB05 JUMP JUMPDEST SWAP3 POP POP PUSH1 0x20 DUP4 ADD CALLDATALOAD PUSH8 0xFFFFFFFFFFFFFFFF DUP2 GT ISZERO PUSH2 0x12AD JUMPI PUSH2 0x12AC PUSH2 0xADF JUMP JUMPDEST JUMPDEST PUSH2 0x12B9 DUP6 DUP3 DUP7 ADD PUSH2 0x1239 JUMP JUMPDEST SWAP2 POP POP SWAP3 POP SWAP3 SWAP1 POP JUMP JUMPDEST PUSH1 0x0 PUSH1 0x20 DUP3 DUP5 SUB SLT ISZERO PUSH2 0x12D9 JUMPI PUSH2 0x12D8 PUSH2 0xADA JUMP JUMPDEST JUMPDEST PUSH1 0x0 DUP3 ADD CALLDATALOAD PUSH8 0xFFFFFFFFFFFFFFFF DUP2 GT ISZERO PUSH2 0x12F7 JUMPI PUSH2 0x12F6 PUSH2 0xADF JUMP JUMPDEST JUMPDEST PUSH2 0x1303 DUP5 DUP3 DUP6 ADD PUSH2 0x1239 JUMP JUMPDEST SWAP2 POP POP SWAP3 SWAP2 POP POP JUMP JUMPDEST PUSH1 0x0 PUSH8 0xFFFFFFFFFFFFFFFF DUP3 GT ISZERO PUSH2 0x1327 JUMPI PUSH2 0x1326 PUSH2 0x113C JUMP JUMPDEST JUMPDEST PUSH1 0x20 DUP3 MUL SWAP1 POP PUSH1 0x20 DUP2 ADD SWAP1 POP SWAP2 SWAP1 POP JUMP JUMPDEST PUSH1 0x0 DUP1 REVERT JUMPDEST PUSH1 0x0 PUSH2 0x1350 PUSH2 0x134B DUP5 PUSH2 0x130C JUMP JUMPDEST PUSH2 0x119C JUMP JUMPDEST SWAP1 POP DUP1 DUP4 DUP3 MSTORE PUSH1 0x20 DUP3 ADD SWAP1 POP PUSH1 0x20 DUP5 MUL DUP4 ADD DUP6 DUP2 GT ISZERO PUSH2 0x1373 JUMPI PUSH2 0x1372 PUSH2 0x1338 JUMP JUMPDEST JUMPDEST DUP4 JUMPDEST DUP2 DUP2 LT ISZERO PUSH2 0x13BA JUMPI DUP1 CALLDATALOAD PUSH8 0xFFFFFFFFFFFFFFFF DUP2 GT ISZERO PUSH2 0x1398 JUMPI PUSH2 0x1397 PUSH2 0x1132 JUMP JUMPDEST JUMPDEST DUP1 DUP7 ADD PUSH2 0x13A5 DUP10 DUP3 PUSH2 0x1239 JUMP JUMPDEST DUP6 MSTORE PUSH1 0x20 DUP6 ADD SWAP5 POP POP POP PUSH1 0x20 DUP2 ADD SWAP1 POP PUSH2 0x1375 JUMP JUMPDEST POP POP POP SWAP4 SWAP3 POP POP POP JUMP JUMPDEST PUSH1 0x0 DUP3 PUSH1 0x1F DUP4 ADD SLT PUSH2 0x13D9 JUMPI PUSH2 0x13D8 PUSH2 0x1132 JUMP JUMPDEST JUMPDEST DUP2 CALLDATALOAD PUSH2 0x13E9 DUP5 DUP3 PUSH1 0x20 DUP7 ADD PUSH2 0x133D JUMP JUMPDEST SWAP2 POP POP SWAP3 SWAP2 POP POP JUMP JUMPDEST PUSH1 0x0 PUSH8 0xFFFFFFFFFFFFFFFF DUP3 GT ISZERO PUSH2 0x140D JUMPI PUSH2 0x140C PUSH2 0x113C JUMP JUMPDEST JUMPDEST PUSH1 0x20 DUP3 MUL SWAP1 POP PUSH1 0x20 DUP2 ADD SWAP1 POP SWAP2 SWAP1 POP JUMP JUMPDEST PUSH1 0x0 DUP1 REVERT JUMPDEST PUSH1 0x0 DUP1 REVERT JUMPDEST PUSH2 0x1431 DUP2 PUSH2 0xDFF JUMP JUMPDEST DUP2 EQ PUSH2 0x143C JUMPI PUSH1 0x0 DUP1 REVERT JUMPDEST POP JUMP JUMPDEST PUSH1 0x0 DUP2 CALLDATALOAD SWAP1 POP PUSH2 0x144E DUP2 PUSH2 0x1428 JUMP JUMPDEST SWAP3 SWAP2 POP POP JUMP JUMPDEST PUSH1 0x0 PUSH1 0x40 DUP3 DUP5 SUB SLT ISZERO PUSH2 0x146A JUMPI PUSH2 0x1469 PUSH2 0x141E JUMP JUMPDEST JUMPDEST PUSH2 0x1474 PUSH1 0x40 PUSH2 0x119C JUMP JUMPDEST SWAP1 POP PUSH1 0x0 DUP3 ADD CALLDATALOAD PUSH8 0xFFFFFFFFFFFFFFFF DUP2 GT ISZERO PUSH2 0x1494 JUMPI PUSH2 0x1493 PUSH2 0x1423 JUMP JUMPDEST JUMPDEST PUSH2 0x14A0 DUP5 DUP3 DUP6 ADD PUSH2 0x1239 JUMP JUMPDEST PUSH1 0x0 DUP4 ADD MSTORE POP PUSH1 0x20 PUSH2 0x14B4 DUP5 DUP3 DUP6 ADD PUSH2 0x143F JUMP JUMPDEST PUSH1 0x20 DUP4 ADD MSTORE POP SWAP3 SWAP2 POP POP JUMP JUMPDEST PUSH1 0x0 PUSH2 0x14D3 PUSH2 0x14CE DUP5 PUSH2 0x13F2 JUMP JUMPDEST PUSH2 0x119C JUMP JUMPDEST SWAP1 POP DUP1 DUP4 DUP3 MSTORE PUSH1 0x20 DUP3 ADD SWAP1 POP PUSH1 0x20 DUP5 MUL DUP4 ADD DUP6 DUP2 GT ISZERO PUSH2 0x14F6 JUMPI PUSH2 0x14F5 PUSH2 0x1338 JUMP JUMPDEST JUMPDEST DUP4 JUMPDEST DUP2 DUP2 LT ISZERO PUSH2 0x153D JUMPI DUP1 CALLDATALOAD PUSH8 0xFFFFFFFFFFFFFFFF DUP2 GT ISZERO PUSH2 0x151B JUMPI PUSH2 0x151A PUSH2 0x1132 JUMP JUMPDEST JUMPDEST DUP1 DUP7 ADD PUSH2 0x1528 DUP10 DUP3 PUSH2 0x1454 JUMP JUMPDEST DUP6 MSTORE PUSH1 0x20 DUP6 ADD SWAP5 POP POP POP PUSH1 0x20 DUP2 ADD SWAP1 POP PUSH2 0x14F8 JUMP JUMPDEST POP POP POP SWAP4 SWAP3 POP POP POP JUMP JUMPDEST PUSH1 0x0 DUP3 PUSH1 0x1F DUP4 ADD SLT PUSH2 0x155C JUMPI PUSH2 0x155B PUSH2 0x1132 JUMP JUMPDEST JUMPDEST DUP2 CALLDATALOAD PUSH2 0x156C DUP5 DUP3 PUSH1 0x20 DUP7 ADD PUSH2 0x14C0 JUMP JUMPDEST SWAP2 POP POP SWAP3 SWAP2 POP POP JUMP JUMPDEST PUSH1 0x0 DUP1 PUSH1 0x0 DUP1 PUSH1 0x0 PUSH1 0xA0 DUP7 DUP9 SUB SLT ISZERO PUSH2 0x1591 JUMPI PUSH2 0x1590 PUSH2 0xADA JUMP JUMPDEST JUMPDEST PUSH1 0x0 PUSH2 0x159F DUP9 DUP3 DUP10 ADD PUSH2 0xB05 JUMP JUMPDEST SWAP6 POP POP PUSH1 0x20 DUP7 ADD CALLDATALOAD PUSH8 0xFFFFFFFFFFFFFFFF DUP2 GT ISZERO PUSH2 0x15C0 JUMPI PUSH2 0x15BF PUSH2 0xADF JUMP JUMPDEST JUMPDEST PUSH2 0x15CC DUP9 DUP3 DUP10 ADD PUSH2 0x1239 JUMP JUMPDEST SWAP5 POP POP PUSH1 0x40 DUP7 ADD CALLDATALOAD PUSH8 0xFFFFFFFFFFFFFFFF DUP2 GT ISZERO PUSH2 0x15ED JUMPI PUSH2 0x15EC PUSH2 0xADF JUMP JUMPDEST JUMPDEST PUSH2 0x15F9 DUP9 DUP3 DUP10 ADD PUSH2 0x13C4 JUMP JUMPDEST SWAP4 POP POP PUSH1 0x60 DUP7 ADD CALLDATALOAD PUSH8 0xFFFFFFFFFFFFFFFF DUP2 GT ISZERO PUSH2 0x161A JUMPI PUSH2 0x1619 PUSH2 0xADF JUMP JUMPDEST JUMPDEST PUSH2 0x1626 DUP9 DUP3 DUP10 ADD PUSH2 0x1239 JUMP JUMPDEST SWAP3 POP POP PUSH1 0x80 DUP7 ADD CALLDATALOAD PUSH8 0xFFFFFFFFFFFFFFFF DUP2 GT ISZERO PUSH2 0x1647 JUMPI PUSH2 0x1646 PUSH2 0xADF JUMP JUMPDEST JUMPDEST PUSH2 0x1653 DUP9 DUP3 DUP10 ADD PUSH2 0x1547 JUMP JUMPDEST SWAP2 POP POP SWAP3 SWAP6 POP SWAP3 SWAP6 SWAP1 SWAP4 POP JUMP JUMPDEST PUSH32 0x4E487B7100000000000000000000000000000000000000000000000000000000 PUSH1 0x0 MSTORE PUSH1 0x22 PUSH1 0x4 MSTORE PUSH1 0x24 PUSH1 0x0 REVERT JUMPDEST PUSH1 0x0 PUSH1 0x2 DUP3 DIV SWAP1 POP PUSH1 0x1 DUP3 AND DUP1 PUSH2 0x16A7 JUMPI PUSH1 0x7F DUP3 AND SWAP2 POP JUMPDEST PUSH1 0x20 DUP3 LT DUP2 SUB PUSH2 0x16BA JUMPI PUSH2 0x16B9 PUSH2 0x1660 JUMP JUMPDEST JUMPDEST POP SWAP2 SWAP1 POP JUMP JUMPDEST PUSH32 0x4E487B7100000000000000000000000000000000000000000000000000000000 PUSH1 0x0 MSTORE PUSH1 0x11 PUSH1 0x4 MSTORE PUSH1 0x24 PUSH1 0x0 REVERT JUMPDEST PUSH1 0x0 PUSH2 0x16FA DUP3 PUSH2 0xAE4 JUMP JUMPDEST SWAP2 POP PUSH2 0x1705 DUP4 PUSH2 0xAE4 JUMP JUMPDEST SWAP3 POP DUP3 DUP3 ADD SWAP1 POP DUP1 DUP3 GT ISZERO PUSH2 0x171D JUMPI PUSH2 0x171C PUSH2 0x16C0 JUMP JUMPDEST JUMPDEST SWAP3 SWAP2 POP POP JUMP JUMPDEST PUSH1 0x0 DUP2 SWAP1 POP DUP2 PUSH1 0x0 MSTORE PUSH1 0x20 PUSH1 0x0 KECCAK256 SWAP1 POP SWAP2 SWAP1 POP JUMP JUMPDEST PUSH1 0x0 PUSH1 0x20 PUSH1 0x1F DUP4 ADD DIV SWAP1 POP SWAP2 SWAP1 POP JUMP JUMPDEST PUSH1 0x0 DUP3 DUP3 SHL SWAP1 POP SWAP3 SWAP2 POP POP JUMP JUMPDEST PUSH1 0x0 PUSH1 0x8 DUP4 MUL PUSH2 0x1785 PUSH32 0xFFFFFFFFFFFFFFFFFFFFFFFFFFFFFFFFFFFFFFFFFFFFFFFFFFFFFFFFFFFFFFFF DUP3 PUSH2 0x1748 JUMP JUMPDEST PUSH2 0x178F DUP7 DUP4 PUSH2 0x1748 JUMP JUMPDEST SWAP6 POP DUP1 NOT DUP5 AND SWAP4 POP DUP1 DUP7 AND DUP5 OR SWAP3 POP POP POP SWAP4 SWAP3 POP POP POP JUMP JUMPDEST PUSH1 0x0 DUP2 SWAP1 POP SWAP2 SWAP1 POP JUMP JUMPDEST PUSH1 0x0 PUSH2 0x17CC PUSH2 0x17C7 PUSH2 0x17C2 DUP5 PUSH2 0xAE4 JUMP JUMPDEST PUSH2 0x17A7 JUMP JUMPDEST PUSH2 0xAE4 JUMP JUMPDEST SWAP1 POP SWAP2 SWAP1 POP JUMP JUMPDEST PUSH1 0x0 DUP2 SWAP1 POP SWAP2 SWAP1 POP JUMP JUMPDEST PUSH2 0x17E6 DUP4 PUSH2 0x17B1 JUMP JUMPDEST PUSH2 0x17FA PUSH2 0x17F2 DUP3 PUSH2 0x17D3 JUMP JUMPDEST DUP5 DUP5 SLOAD PUSH2 0x1755 JUMP JUMPDEST DUP3 SSTORE POP POP POP POP JUMP JUMPDEST PUSH1 0x0 SWAP1 JUMP JUMPDEST PUSH2 0x180F PUSH2 0x1802 JUMP JUMPDEST PUSH2 0x181A DUP2 DUP5 DUP5 PUSH2 0x17DD JUMP JUMPDEST POP POP POP JUMP JUMPDEST JUMPDEST DUP2 DUP2 LT ISZERO PUSH2 0x183E JUMPI PUSH2 0x1833 PUSH1 0x0 DUP3 PUSH2 0x1807 JUMP JUMPDEST PUSH1 0x1 DUP2 ADD SWAP1 POP PUSH2 0x1820 JUMP JUMPDEST POP POP JUMP JUMPDEST PUSH1 0x1F DUP3 GT ISZERO PUSH2 0x1883 JUMPI PUSH2 0x1854 DUP2 PUSH2 0x1723 JUMP JUMPDEST PUSH2 0x185D DUP5 PUSH2 0x1738 JUMP JUMPDEST DUP2 ADD PUSH1 0x20 DUP6 LT ISZERO PUSH2 0x186C JUMPI DUP2 SWAP1 POP JUMPDEST PUSH2 0x1880 PUSH2 0x1878 DUP6 PUSH2 0x1738 JUMP JUMPDEST DUP4 ADD DUP3 PUSH2 0x181F JUMP JUMPDEST POP POP JUMPDEST POP POP POP JUMP JUMPDEST PUSH1 0x0 DUP3 DUP3 SHR SWAP1 POP SWAP3 SWAP2 POP POP JUMP JUMPDEST PUSH1 0x0 PUSH2 0x18A6 PUSH1 0x0 NOT DUP5 PUSH1 0x8 MUL PUSH2 0x1888 JUMP JUMPDEST NOT DUP1 DUP4 AND SWAP2 POP POP SWAP3 SWAP2 POP POP JUMP JUMPDEST PUSH1 0x0 PUSH2 0x18BF DUP4 DUP4 PUSH2 0x1895 JUMP JUMPDEST SWAP2 POP DUP3 PUSH1 0x2 MUL DUP3 OR SWAP1 POP SWAP3 SWAP2 POP POP JUMP JUMPDEST PUSH2 0x18D8 DUP3 PUSH2 0xB56 JUMP JUMPDEST PUSH8 0xFFFFFFFFFFFFFFFF DUP2 GT ISZERO PUSH2 0x18F1 JUMPI PUSH2 0x18F0 PUSH2 0x113C JUMP JUMPDEST JUMPDEST PUSH2 0x18FB DUP3 SLOAD PUSH2 0x168F JUMP JUMPDEST PUSH2 0x1906 DUP3 DUP3 DUP6 PUSH2 0x1842 JUMP JUMPDEST PUSH1 0x0 PUSH1 0x20 SWAP1 POP PUSH1 0x1F DUP4 GT PUSH1 0x1 DUP2 EQ PUSH2 0x1939 JUMPI PUSH1 0x0 DUP5 ISZERO PUSH2 0x1927 JUMPI DUP3 DUP8 ADD MLOAD SWAP1 POP JUMPDEST PUSH2 0x1931 DUP6 DUP3 PUSH2 0x18B3 JUMP JUMPDEST DUP7 SSTORE POP PUSH2 0x1999 JUMP JUMPDEST PUSH1 0x1F NOT DUP5 AND PUSH2 0x1947 DUP7 PUSH2 0x1723 JUMP JUMPDEST PUSH1 0x0 JUMPDEST DUP3 DUP2 LT ISZERO PUSH2 0x196F JUMPI DUP5 DUP10 ADD MLOAD DUP3 SSTORE PUSH1 0x1 DUP3 ADD SWAP2 POP PUSH1 0x20 DUP6 ADD SWAP5 POP PUSH1 0x20 DUP2 ADD SWAP1 POP PUSH2 0x194A JUMP JUMPDEST DUP7 DUP4 LT ISZERO PUSH2 0x198C JUMPI DUP5 DUP10 ADD MLOAD PUSH2 0x1988 PUSH1 0x1F DUP10 AND DUP3 PUSH2 0x1895 JUMP JUMPDEST DUP4 SSTORE POP JUMPDEST PUSH1 0x1 PUSH1 0x2 DUP9 MUL ADD DUP9 SSTORE POP POP POP JUMPDEST POP POP POP POP POP POP JUMP JUMPDEST PUSH1 0x0 PUSH2 0x19AC DUP3 PUSH2 0xAE4 JUMP JUMPDEST SWAP2 POP PUSH32 0xFFFFFFFFFFFFFFFFFFFFFFFFFFFFFFFFFFFFFFFFFFFFFFFFFFFFFFFFFFFFFFFF DUP3 SUB PUSH2 0x19DE JUMPI PUSH2 0x19DD PUSH2 0x16C0 JUMP JUMPDEST JUMPDEST PUSH1 0x1 DUP3 ADD SWAP1 POP SWAP2 SWAP1 POP JUMP JUMPDEST PUSH32 0x4E487B7100000000000000000000000000000000000000000000000000000000 PUSH1 0x0 MSTORE PUSH1 0x32 PUSH1 0x4 MSTORE PUSH1 0x24 PUSH1 0x0 REVERT INVALID LOG2 PUSH5 0x6970667358 0x22 SLT KECCAK256 DUP8 RETURNDATACOPY MSIZE PUSH18 0xB28EA3486A90B8BFE86906D937AA0D367DBD 0x2D SWAP1 DUP6 0xE6 0xEE 0x21 MLOAD REVERT DUP9 0xAE PUSH5 0x736F6C6343 STOP ADDMOD EQ STOP CALLER "
        },
        "methodIdentifiers": {
          "addCard(uint256,string)": "aa93d702",
          "addProject(uint256,string,string[],string,(string,bool)[])": "f88c6fcc",
          "createList(string)": "b8dcc68f",
          "getList(uint256)": "1ab5b383",
          "listCount()": "1b68d10d",
          "lists(uint256)": "96102cf4"
        }
      }
    }
  }
}