{
  "_format": "hh-sol-artifact-1",
  "contractName": "Trello",
  "sourceName": "contracts/Trello.sol",
  "abi": [
    {
      "inputs": [
        {
          "internalType": "uint256",
          "name": "_listId",
          "type": "uint256"
        },
        {
          "internalType": "string",
          "name": "_text",
          "type": "string"
        }
      ],
      "name": "addCard",
      "outputs": [],
      "stateMutability": "nonpayable",
      "type": "function"
    },
    {
      "inputs": [
        {
          "internalType": "string",
          "name": "_title",
          "type": "string"
        }
      ],
      "name": "createList",
      "outputs": [],
      "stateMutability": "nonpayable",
      "type": "function"
    },
    {
      "inputs": [
        {
          "internalType": "uint256",
          "name": "_listId",
          "type": "uint256"
        }
      ],
      "name": "getList",
      "outputs": [
        {
          "components": [
            {
              "internalType": "uint256",
              "name": "id",
              "type": "uint256"
            },
            {
              "internalType": "string",
              "name": "title",
              "type": "string"
            },
            {
              "components": [
                {
                  "internalType": "uint256",
                  "name": "id",
                  "type": "uint256"
                },
                {
                  "internalType": "string",
                  "name": "text",
                  "type": "string"
                }
              ],
              "internalType": "struct Trello.Card[]",
              "name": "cards",
              "type": "tuple[]"
            }
          ],
          "internalType": "struct Trello.List",
          "name": "",
          "type": "tuple"
        }
      ],
      "stateMutability": "view",
      "type": "function"
    },
    {
      "inputs": [],
      "name": "listCount",
      "outputs": [
        {
          "internalType": "uint256",
          "name": "",
          "type": "uint256"
        }
      ],
      "stateMutability": "view",
      "type": "function"
    },
    {
      "inputs": [
        {
          "internalType": "uint256",
          "name": "",
          "type": "uint256"
        }
      ],
      "name": "lists",
      "outputs": [
        {
          "internalType": "uint256",
          "name": "id",
          "type": "uint256"
        },
        {
          "internalType": "string",
          "name": "title",
          "type": "string"
        }
      ],
      "stateMutability": "view",
      "type": "function"
    }
  ],
  "bytecode": "0x608060405234801561001057600080fd5b50610d5d806100206000396000f3fe608060405234801561001057600080fd5b50600436106100575760003560e01c80631ab5b3831461005c5780631b68d10d1461008c57806396102cf4146100aa578063aa93d702146100db578063b8dcc68f146100f7575b600080fd5b610076600480360381019061007191906104dc565b610113565b60405161008391906106fe565b60405180910390f35b6100946102d6565b6040516100a1919061072f565b60405180910390f35b6100c460048036038101906100bf91906104dc565b6102dc565b6040516100d2929190610794565b60405180910390f35b6100f560048036038101906100f091906108f9565b610388565b005b610111600480360381019061010c9190610955565b610420565b005b61011b610471565b60008083815260200190815260200160002060405180606001604052908160008201548152602001600182018054610152906109cd565b80601f016020809104026020016040519081016040528092919081815260200182805461017e906109cd565b80156101cb5780601f106101a0576101008083540402835291602001916101cb565b820191906000526020600020905b8154815290600101906020018083116101ae57829003601f168201915b5050505050815260200160028201805480602002602001604051908101604052809291908181526020016000905b828210156102c7578382906000526020600020906002020160405180604001604052908160008201548152602001600182018054610236906109cd565b80601f0160208091040260200160405190810160405280929190818152602001828054610262906109cd565b80156102af5780601f10610284576101008083540402835291602001916102af565b820191906000526020600020905b81548152906001019060200180831161029257829003601f168201915b505050505081525050815260200190600101906101f9565b50505050815250509050919050565b60015481565b6000602052806000526040600020600091509050806000015490806001018054610305906109cd565b80601f0160208091040260200160405190810160405280929190818152602001828054610331906109cd565b801561037e5780601f106103535761010080835404028352916020019161037e565b820191906000526020600020905b81548152906001019060200180831161036157829003601f168201915b5050505050905082565b600080600084815260200190815260200160002090506000600182600201805490506103b49190610a2d565b90508160020160405180604001604052808381526020018581525090806001815401808255809150506001900390600052602060002090600202016000909190919091506000820151816000015560208201518160010190816104179190610c0d565b50505050505050565b6001600081548092919061043390610cdf565b919050555060008060006001548152602001908152602001600020905060015481600001819055508181600101908161046c9190610c0d565b505050565b60405180606001604052806000815260200160608152602001606081525090565b6000604051905090565b600080fd5b600080fd5b6000819050919050565b6104b9816104a6565b81146104c457600080fd5b50565b6000813590506104d6816104b0565b92915050565b6000602082840312156104f2576104f161049c565b5b6000610500848285016104c7565b91505092915050565b610512816104a6565b82525050565b600081519050919050565b600082825260208201905092915050565b60005b83811015610552578082015181840152602081019050610537565b60008484015250505050565b6000601f19601f8301169050919050565b600061057a82610518565b6105848185610523565b9350610594818560208601610534565b61059d8161055e565b840191505092915050565b600081519050919050565b600082825260208201905092915050565b6000819050602082019050919050565b60006040830160008301516105ec6000860182610509565b5060208301518482036020860152610604828261056f565b9150508091505092915050565b600061061d83836105d4565b905092915050565b6000602082019050919050565b600061063d826105a8565b61064781856105b3565b935083602082028501610659856105c4565b8060005b8581101561069557848403895281516106768582610611565b945061068183610625565b925060208a0199505060018101905061065d565b50829750879550505050505092915050565b60006060830160008301516106bf6000860182610509565b50602083015184820360208601526106d7828261056f565b915050604083015184820360408601526106f18282610632565b9150508091505092915050565b6000602082019050818103600083015261071881846106a7565b905092915050565b610729816104a6565b82525050565b60006020820190506107446000830184610720565b92915050565b600082825260208201905092915050565b600061076682610518565b610770818561074a565b9350610780818560208601610534565b6107898161055e565b840191505092915050565b60006040820190506107a96000830185610720565b81810360208301526107bb818461075b565b90509392505050565b600080fd5b600080fd5b7f4e487b7100000000000000000000000000000000000000000000000000000000600052604160045260246000fd5b6108068261055e565b810181811067ffffffffffffffff82111715610825576108246107ce565b5b80604052505050565b6000610838610492565b905061084482826107fd565b919050565b600067ffffffffffffffff821115610864576108636107ce565b5b61086d8261055e565b9050602081019050919050565b82818337600083830152505050565b600061089c61089784610849565b61082e565b9050828152602081018484840111156108b8576108b76107c9565b5b6108c384828561087a565b509392505050565b600082601f8301126108e0576108df6107c4565b5b81356108f0848260208601610889565b91505092915050565b600080604083850312156109105761090f61049c565b5b600061091e858286016104c7565b925050602083013567ffffffffffffffff81111561093f5761093e6104a1565b5b61094b858286016108cb565b9150509250929050565b60006020828403121561096b5761096a61049c565b5b600082013567ffffffffffffffff811115610989576109886104a1565b5b610995848285016108cb565b91505092915050565b7f4e487b7100000000000000000000000000000000000000000000000000000000600052602260045260246000fd5b600060028204905060018216806109e557607f821691505b6020821081036109f8576109f761099e565b5b50919050565b7f4e487b7100000000000000000000000000000000000000000000000000000000600052601160045260246000fd5b6000610a38826104a6565b9150610a43836104a6565b9250828201905080821115610a5b57610a5a6109fe565b5b92915050565b60008190508160005260206000209050919050565b60006020601f8301049050919050565b600082821b905092915050565b600060088302610ac37fffffffffffffffffffffffffffffffffffffffffffffffffffffffffffffffff82610a86565b610acd8683610a86565b95508019841693508086168417925050509392505050565b6000819050919050565b6000610b0a610b05610b00846104a6565b610ae5565b6104a6565b9050919050565b6000819050919050565b610b2483610aef565b610b38610b3082610b11565b848454610a93565b825550505050565b600090565b610b4d610b40565b610b58818484610b1b565b505050565b5b81811015610b7c57610b71600082610b45565b600181019050610b5e565b5050565b601f821115610bc157610b9281610a61565b610b9b84610a76565b81016020851015610baa578190505b610bbe610bb685610a76565b830182610b5d565b50505b505050565b600082821c905092915050565b6000610be460001984600802610bc6565b1980831691505092915050565b6000610bfd8383610bd3565b9150826002028217905092915050565b610c1682610518565b67ffffffffffffffff811115610c2f57610c2e6107ce565b5b610c3982546109cd565b610c44828285610b80565b600060209050601f831160018114610c775760008415610c65578287015190505b610c6f8582610bf1565b865550610cd7565b601f198416610c8586610a61565b60005b82811015610cad57848901518255600182019150602085019450602081019050610c88565b86831015610cca5784890151610cc6601f891682610bd3565b8355505b6001600288020188555050505b505050505050565b6000610cea826104a6565b91507fffffffffffffffffffffffffffffffffffffffffffffffffffffffffffffffff8203610d1c57610d1b6109fe565b5b60018201905091905056fea26469706673582212202532e951918b795034f3706b4b8c53aa4726d2188ca0b2474c3170b8bd9eb9de64736f6c63430008140033",
  "linkReferences": {},
  "deployedLinkReferences": {}
}