{
  "_format": "hh-sol-artifact-1",
  "contractName": "Trello",
  "sourceName": "contracts/Trello.sol",
  "abi": [
    {
      "anonymous": false,
      "inputs": [
        {
          "indexed": false,
          "internalType": "uint256",
          "name": "listId",
          "type": "uint256"
        },
        {
          "indexed": false,
          "internalType": "string",
          "name": "title",
          "type": "string"
        }
      ],
      "name": "ListCreated",
      "type": "event"
    },
    {
      "anonymous": false,
      "inputs": [
        {
          "indexed": false,
          "internalType": "uint256",
          "name": "listId",
          "type": "uint256"
        },
        {
          "indexed": false,
          "internalType": "string",
          "name": "projectName",
          "type": "string"
        }
      ],
      "name": "ProjectAdded",
      "type": "event"
    },
    {
      "inputs": [
        {
          "internalType": "uint256",
          "name": "_listId",
          "type": "uint256"
        },
        {
          "internalType": "string",
          "name": "_text",
          "type": "string"
        }
      ],
      "name": "addCard",
      "outputs": [],
      "stateMutability": "nonpayable",
      "type": "function"
    },
    {
      "inputs": [
        {
          "internalType": "uint256",
          "name": "_listId",
          "type": "uint256"
        },
        {
          "internalType": "string",
          "name": "_name",
          "type": "string"
        },
        {
          "internalType": "string[]",
          "name": "_members",
          "type": "string[]"
        },
        {
          "internalType": "string",
          "name": "_dueDate",
          "type": "string"
        },
        {
          "components": [
            {
              "internalType": "string",
              "name": "text",
              "type": "string"
            },
            {
              "internalType": "bool",
              "name": "completed",
              "type": "bool"
            }
          ],
          "internalType": "struct Trello.ChecklistItem[]",
          "name": "_checklist",
          "type": "tuple[]"
        }
      ],
      "name": "addProject",
      "outputs": [],
      "stateMutability": "nonpayable",
      "type": "function"
    },
    {
      "inputs": [
        {
          "internalType": "string",
          "name": "_title",
          "type": "string"
        }
      ],
      "name": "createList",
      "outputs": [],
      "stateMutability": "nonpayable",
      "type": "function"
    },
    {
      "inputs": [
        {
          "internalType": "uint256",
          "name": "_listId",
          "type": "uint256"
        }
      ],
      "name": "getList",
      "outputs": [
        {
          "components": [
            {
              "internalType": "uint256",
              "name": "id",
              "type": "uint256"
            },
            {
              "internalType": "string",
              "name": "title",
              "type": "string"
            },
            {
              "components": [
                {
                  "internalType": "uint256",
                  "name": "id",
                  "type": "uint256"
                },
                {
                  "internalType": "string",
                  "name": "text",
                  "type": "string"
                }
              ],
              "internalType": "struct Trello.Card[]",
              "name": "cards",
              "type": "tuple[]"
            },
            {
              "components": [
                {
                  "internalType": "string",
                  "name": "name",
                  "type": "string"
                },
                {
                  "internalType": "string[]",
                  "name": "members",
                  "type": "string[]"
                },
                {
                  "internalType": "string",
                  "name": "dueDate",
                  "type": "string"
                },
                {
                  "components": [
                    {
                      "internalType": "string",
                      "name": "text",
                      "type": "string"
                    },
                    {
                      "internalType": "bool",
                      "name": "completed",
                      "type": "bool"
                    }
                  ],
                  "internalType": "struct Trello.ChecklistItem[]",
                  "name": "checklist",
                  "type": "tuple[]"
                }
              ],
              "internalType": "struct Trello.Project[]",
              "name": "projects",
              "type": "tuple[]"
            }
          ],
          "internalType": "struct Trello.List",
          "name": "",
          "type": "tuple"
        }
      ],
      "stateMutability": "view",
      "type": "function"
    },
    {
      "inputs": [],
      "name": "listCount",
      "outputs": [
        {
          "internalType": "uint256",
          "name": "",
          "type": "uint256"
        }
      ],
      "stateMutability": "view",
      "type": "function"
    },
    {
      "inputs": [
        {
          "internalType": "uint256",
          "name": "",
          "type": "uint256"
        }
      ],
      "name": "lists",
      "outputs": [
        {
          "internalType": "uint256",
          "name": "id",
          "type": "uint256"
        },
        {
          "internalType": "string",
          "name": "title",
          "type": "string"
        }
      ],
      "stateMutability": "view",
      "type": "function"
    }
  ],
  "bytecode": "0x608060405234801561001057600080fd5b50611a4e806100206000396000f3fe608060405234801561001057600080fd5b50600436106100625760003560e01c80631ab5b383146100675780631b68d10d1461009757806396102cf4146100b5578063aa93d702146100e6578063b8dcc68f14610102578063f88c6fcc1461011e575b600080fd5b610081600480360381019061007c9190610b1a565b61013a565b60405161008e919061106c565b60405180910390f35b61009f610665565b6040516100ac919061109d565b60405180910390f35b6100cf60048036038101906100ca9190610b1a565b61066b565b6040516100dd929190611102565b60405180910390f35b61010060048036038101906100fb9190611267565b610717565b005b61011c600480360381019061011791906112c3565b6107af565b005b61013860048036038101906101339190611575565b61083b565b005b6101426109ce565b600080838152602001908152602001600020604051806080016040529081600082015481526020016001820180546101799061168f565b80601f01602080910402602001604051908101604052809291908181526020018280546101a59061168f565b80156101f25780601f106101c7576101008083540402835291602001916101f2565b820191906000526020600020905b8154815290600101906020018083116101d557829003601f168201915b5050505050815260200160028201805480602002602001604051908101604052809291908181526020016000905b828210156102ee57838290600052602060002090600202016040518060400160405290816000820154815260200160018201805461025d9061168f565b80601f01602080910402602001604051908101604052809291908181526020018280546102899061168f565b80156102d65780601f106102ab576101008083540402835291602001916102d6565b820191906000526020600020905b8154815290600101906020018083116102b957829003601f168201915b50505050508152505081526020019060010190610220565b50505050815260200160038201805480602002602001604051908101604052809291908181526020016000905b82821015610656578382906000526020600020906004020160405180608001604052908160008201805461034e9061168f565b80601f016020809104026020016040519081016040528092919081815260200182805461037a9061168f565b80156103c75780601f1061039c576101008083540402835291602001916103c7565b820191906000526020600020905b8154815290600101906020018083116103aa57829003601f168201915b5050505050815260200160018201805480602002602001604051908101604052809291908181526020016000905b828210156104a15783829060005260206000200180546104149061168f565b80601f01602080910402602001604051908101604052809291908181526020018280546104409061168f565b801561048d5780601f106104625761010080835404028352916020019161048d565b820191906000526020600020905b81548152906001019060200180831161047057829003601f168201915b5050505050815260200190600101906103f5565b5050505081526020016002820180546104b99061168f565b80601f01602080910402602001604051908101604052809291908181526020018280546104e59061168f565b80156105325780601f1061050757610100808354040283529160200191610532565b820191906000526020600020905b81548152906001019060200180831161051557829003601f168201915b5050505050815260200160038201805480602002602001604051908101604052809291908181526020016000905b8282101561063f57838290600052602060002090600202016040518060400160405290816000820180546105939061168f565b80601f01602080910402602001604051908101604052809291908181526020018280546105bf9061168f565b801561060c5780601f106105e15761010080835404028352916020019161060c565b820191906000526020600020905b8154815290600101906020018083116105ef57829003601f168201915b505050505081526020016001820160009054906101000a900460ff16151515158152505081526020019060010190610560565b50505050815250508152602001906001019061031b565b50505050815250509050919050565b60015481565b60006020528060005260406000206000915090508060000154908060010180546106949061168f565b80601f01602080910402602001604051908101604052809291908181526020018280546106c09061168f565b801561070d5780601f106106e25761010080835404028352916020019161070d565b820191906000526020600020905b8154815290600101906020018083116106f057829003601f168201915b5050505050905082565b6000806000848152602001908152602001600020905060006001826002018054905061074391906116ef565b90508160020160405180604001604052808381526020018581525090806001815401808255809150506001900390600052602060002090600202016000909190919091506000820151816000015560208201518160010190816107a691906118cf565b50505050505050565b600160008154809291906107c2906119a1565b91905055506000806000600154815260200190815260200160002090506001548160000181905550818160010190816107fb91906118cf565b507f13c0a79b829782fd89082c728447d4543330e162ab0a74ca8d0f47a1161be9626001548360405161082f929190611102565b60405180910390a15050565b6000806000878152602001908152602001600020905060008160030160018160018154018082558091505003906000526020600020906004020190508581600001908161088891906118cf565b50848160010190805190602001906108a19291906109f6565b50838160020190816108b391906118cf565b5060005b835181101561098b578160030160405180604001604052808684815181106108e2576108e16119e9565b5b6020026020010151600001518152602001868481518110610906576109056119e9565b5b60200260200101516020015115158152509080600181540180825580915050600190039060005260206000209060020201600090919091909150600082015181600001908161095591906118cf565b5060208201518160010160006101000a81548160ff02191690831515021790555050508080610983906119a1565b9150506108b7565b507f0855be7ab46e0ae9e0d9c2f3567377c0a577a8c726b7c88615644d282a1fc29187876040516109bd929190611102565b60405180910390a150505050505050565b6040518060800160405280600081526020016060815260200160608152602001606081525090565b828054828255906000526020600020908101928215610a3e579160200282015b82811115610a3d578251829081610a2d91906118cf565b5091602001919060010190610a16565b5b509050610a4b9190610a4f565b5090565b5b80821115610a6f5760008181610a669190610a73565b50600101610a50565b5090565b508054610a7f9061168f565b6000825580601f10610a915750610ab0565b601f016020900490600052602060002090810190610aaf9190610ab3565b5b50565b5b80821115610acc576000816000905550600101610ab4565b5090565b6000604051905090565b600080fd5b600080fd5b6000819050919050565b610af781610ae4565b8114610b0257600080fd5b50565b600081359050610b1481610aee565b92915050565b600060208284031215610b3057610b2f610ada565b5b6000610b3e84828501610b05565b91505092915050565b610b5081610ae4565b82525050565b600081519050919050565b600082825260208201905092915050565b60005b83811015610b90578082015181840152602081019050610b75565b60008484015250505050565b6000601f19601f8301169050919050565b6000610bb882610b56565b610bc28185610b61565b9350610bd2818560208601610b72565b610bdb81610b9c565b840191505092915050565b600081519050919050565b600082825260208201905092915050565b6000819050602082019050919050565b6000604083016000830151610c2a6000860182610b47565b5060208301518482036020860152610c428282610bad565b9150508091505092915050565b6000610c5b8383610c12565b905092915050565b6000602082019050919050565b6000610c7b82610be6565b610c858185610bf1565b935083602082028501610c9785610c02565b8060005b85811015610cd35784840389528151610cb48582610c4f565b9450610cbf83610c63565b925060208a01995050600181019050610c9b565b50829750879550505050505092915050565b600081519050919050565b600082825260208201905092915050565b6000819050602082019050919050565b600081519050919050565b600082825260208201905092915050565b6000819050602082019050919050565b6000610d498383610bad565b905092915050565b6000602082019050919050565b6000610d6982610d11565b610d738185610d1c565b935083602082028501610d8585610d2d565b8060005b85811015610dc15784840389528151610da28582610d3d565b9450610dad83610d51565b925060208a01995050600181019050610d89565b50829750879550505050505092915050565b600081519050919050565b600082825260208201905092915050565b6000819050602082019050919050565b60008115159050919050565b610e1481610dff565b82525050565b60006040830160008301518482036000860152610e378282610bad565b9150506020830151610e4c6020860182610e0b565b508091505092915050565b6000610e638383610e1a565b905092915050565b6000602082019050919050565b6000610e8382610dd3565b610e8d8185610dde565b935083602082028501610e9f85610def565b8060005b85811015610edb5784840389528151610ebc8582610e57565b9450610ec783610e6b565b925060208a01995050600181019050610ea3565b50829750879550505050505092915050565b60006080830160008301518482036000860152610f0a8282610bad565b91505060208301518482036020860152610f248282610d5e565b91505060408301518482036040860152610f3e8282610bad565b91505060608301518482036060860152610f588282610e78565b9150508091505092915050565b6000610f718383610eed565b905092915050565b6000602082019050919050565b6000610f9182610ce5565b610f9b8185610cf0565b935083602082028501610fad85610d01565b8060005b85811015610fe95784840389528151610fca8582610f65565b9450610fd583610f79565b925060208a01995050600181019050610fb1565b50829750879550505050505092915050565b60006080830160008301516110136000860182610b47565b506020830151848203602086015261102b8282610bad565b915050604083015184820360408601526110458282610c70565b9150506060830151848203606086015261105f8282610f86565b9150508091505092915050565b600060208201905081810360008301526110868184610ffb565b905092915050565b61109781610ae4565b82525050565b60006020820190506110b2600083018461108e565b92915050565b600082825260208201905092915050565b60006110d482610b56565b6110de81856110b8565b93506110ee818560208601610b72565b6110f781610b9c565b840191505092915050565b6000604082019050611117600083018561108e565b818103602083015261112981846110c9565b90509392505050565b600080fd5b600080fd5b7f4e487b7100000000000000000000000000000000000000000000000000000000600052604160045260246000fd5b61117482610b9c565b810181811067ffffffffffffffff821117156111935761119261113c565b5b80604052505050565b60006111a6610ad0565b90506111b2828261116b565b919050565b600067ffffffffffffffff8211156111d2576111d161113c565b5b6111db82610b9c565b9050602081019050919050565b82818337600083830152505050565b600061120a611205846111b7565b61119c565b90508281526020810184848401111561122657611225611137565b5b6112318482856111e8565b509392505050565b600082601f83011261124e5761124d611132565b5b813561125e8482602086016111f7565b91505092915050565b6000806040838503121561127e5761127d610ada565b5b600061128c85828601610b05565b925050602083013567ffffffffffffffff8111156112ad576112ac610adf565b5b6112b985828601611239565b9150509250929050565b6000602082840312156112d9576112d8610ada565b5b600082013567ffffffffffffffff8111156112f7576112f6610adf565b5b61130384828501611239565b91505092915050565b600067ffffffffffffffff8211156113275761132661113c565b5b602082029050602081019050919050565b600080fd5b600061135061134b8461130c565b61119c565b9050808382526020820190506020840283018581111561137357611372611338565b5b835b818110156113ba57803567ffffffffffffffff81111561139857611397611132565b5b8086016113a58982611239565b85526020850194505050602081019050611375565b5050509392505050565b600082601f8301126113d9576113d8611132565b5b81356113e984826020860161133d565b91505092915050565b600067ffffffffffffffff82111561140d5761140c61113c565b5b602082029050602081019050919050565b600080fd5b600080fd5b61143181610dff565b811461143c57600080fd5b50565b60008135905061144e81611428565b92915050565b60006040828403121561146a5761146961141e565b5b611474604061119c565b9050600082013567ffffffffffffffff81111561149457611493611423565b5b6114a084828501611239565b60008301525060206114b48482850161143f565b60208301525092915050565b60006114d36114ce846113f2565b61119c565b905080838252602082019050602084028301858111156114f6576114f5611338565b5b835b8181101561153d57803567ffffffffffffffff81111561151b5761151a611132565b5b8086016115288982611454565b855260208501945050506020810190506114f8565b5050509392505050565b600082601f83011261155c5761155b611132565b5b813561156c8482602086016114c0565b91505092915050565b600080600080600060a0868803121561159157611590610ada565b5b600061159f88828901610b05565b955050602086013567ffffffffffffffff8111156115c0576115bf610adf565b5b6115cc88828901611239565b945050604086013567ffffffffffffffff8111156115ed576115ec610adf565b5b6115f9888289016113c4565b935050606086013567ffffffffffffffff81111561161a57611619610adf565b5b61162688828901611239565b925050608086013567ffffffffffffffff81111561164757611646610adf565b5b61165388828901611547565b9150509295509295909350565b7f4e487b7100000000000000000000000000000000000000000000000000000000600052602260045260246000fd5b600060028204905060018216806116a757607f821691505b6020821081036116ba576116b9611660565b5b50919050565b7f4e487b7100000000000000000000000000000000000000000000000000000000600052601160045260246000fd5b60006116fa82610ae4565b915061170583610ae4565b925082820190508082111561171d5761171c6116c0565b5b92915050565b60008190508160005260206000209050919050565b60006020601f8301049050919050565b600082821b905092915050565b6000600883026117857fffffffffffffffffffffffffffffffffffffffffffffffffffffffffffffffff82611748565b61178f8683611748565b95508019841693508086168417925050509392505050565b6000819050919050565b60006117cc6117c76117c284610ae4565b6117a7565b610ae4565b9050919050565b6000819050919050565b6117e6836117b1565b6117fa6117f2826117d3565b848454611755565b825550505050565b600090565b61180f611802565b61181a8184846117dd565b505050565b5b8181101561183e57611833600082611807565b600181019050611820565b5050565b601f8211156118835761185481611723565b61185d84611738565b8101602085101561186c578190505b61188061187885611738565b83018261181f565b50505b505050565b600082821c905092915050565b60006118a660001984600802611888565b1980831691505092915050565b60006118bf8383611895565b9150826002028217905092915050565b6118d882610b56565b67ffffffffffffffff8111156118f1576118f061113c565b5b6118fb825461168f565b611906828285611842565b600060209050601f8311600181146119395760008415611927578287015190505b61193185826118b3565b865550611999565b601f19841661194786611723565b60005b8281101561196f5784890151825560018201915060208501945060208101905061194a565b8683101561198c5784890151611988601f891682611895565b8355505b6001600288020188555050505b505050505050565b60006119ac82610ae4565b91507fffffffffffffffffffffffffffffffffffffffffffffffffffffffffffffffff82036119de576119dd6116c0565b5b600182019050919050565b7f4e487b7100000000000000000000000000000000000000000000000000000000600052603260045260246000fdfea2646970667358221220873e5971b28ea3486a90b8bfe86906d937aa0d367dbd2d9085e6ee2151fd88ae64736f6c63430008140033",
  "linkReferences": {},
  "deployedLinkReferences": {}
}